{
  "contractName": "BienImmoContract",
  "abi": [
    {
      "inputs": [],
      "payable": false,
      "stateMutability": "nonpayable",
      "type": "constructor"
    },
    {
      "anonymous": false,
      "inputs": [
        {
          "indexed": false,
          "internalType": "uint256",
          "name": "_id",
          "type": "uint256"
        },
        {
          "indexed": false,
          "internalType": "string",
          "name": "_user",
          "type": "string"
        },
        {
          "indexed": false,
          "internalType": "string",
          "name": "_nom",
          "type": "string"
        },
        {
          "indexed": false,
          "internalType": "uint256",
          "name": "_prix",
          "type": "uint256"
        },
        {
          "indexed": false,
          "internalType": "string",
          "name": "_adress",
          "type": "string"
        }
      ],
      "name": "ImmoBaddEvent",
      "type": "event"
    },
    {
      "constant": false,
      "inputs": [
        {
          "internalType": "string",
          "name": "name",
          "type": "string"
        }
      ],
      "name": "addUsername",
      "outputs": [
        {
          "internalType": "uint256",
          "name": "",
          "type": "uint256"
        }
      ],
      "payable": false,
      "stateMutability": "nonpayable",
      "type": "function"
    },
    {
      "constant": true,
      "inputs": [],
      "name": "getMyName",
      "outputs": [
        {
          "internalType": "string",
          "name": "",
          "type": "string"
        }
      ],
      "payable": false,
      "stateMutability": "view",
      "type": "function"
    },
    {
      "constant": true,
      "inputs": [],
      "name": "usercheck",
      "outputs": [
        {
          "internalType": "uint256",
          "name": "",
          "type": "uint256"
        }
      ],
      "payable": false,
      "stateMutability": "view",
      "type": "function"
    },
    {
      "constant": false,
      "inputs": [
        {
          "internalType": "uint256",
          "name": "_ownerId",
          "type": "uint256"
        },
        {
          "internalType": "string",
          "name": "_nom",
          "type": "string"
        },
        {
          "internalType": "uint256",
          "name": "_prix",
          "type": "uint256"
        },
        {
          "internalType": "string",
          "name": "_immo_address",
          "type": "string"
        },
        {
          "internalType": "string",
          "name": "_detail",
          "type": "string"
        }
      ],
      "name": "addBienImmo",
      "outputs": [],
      "payable": false,
      "stateMutability": "nonpayable",
      "type": "function"
    },
    {
      "constant": true,
      "inputs": [],
      "name": "ImmoBListread",
      "outputs": [
        {
          "components": [
            {
              "internalType": "uint256",
              "name": "id",
              "type": "uint256"
            },
            {
              "internalType": "string",
              "name": "nom",
              "type": "string"
            },
            {
              "internalType": "uint256",
              "name": "prix",
              "type": "uint256"
            },
            {
              "internalType": "string",
              "name": "adress",
              "type": "string"
            },
            {
              "internalType": "string",
              "name": "detail",
              "type": "string"
            },
            {
              "internalType": "string",
              "name": "vendeur",
              "type": "string"
            },
            {
              "internalType": "string",
              "name": "achat_status",
              "type": "string"
            },
            {
              "internalType": "string",
              "name": "acheteur",
              "type": "string"
            },
            {
              "internalType": "bool",
              "name": "archiver",
              "type": "bool"
            },
            {
              "internalType": "string",
              "name": "image1",
              "type": "string"
            },
            {
              "internalType": "string",
              "name": "image2",
              "type": "string"
            },
            {
              "internalType": "string",
              "name": "image3",
              "type": "string"
            },
            {
              "internalType": "string",
              "name": "image4",
              "type": "string"
            },
            {
              "internalType": "string",
              "name": "image5",
              "type": "string"
            }
          ],
          "internalType": "struct BienImmoContract.Immobien[]",
          "name": "",
          "type": "tuple[]"
        }
      ],
      "payable": false,
      "stateMutability": "view",
      "type": "function"
    },
    {
      "constant": false,
      "inputs": [
        {
          "internalType": "uint256",
          "name": "_id",
          "type": "uint256"
        },
        {
          "internalType": "string",
          "name": "_actual_name",
          "type": "string"
        },
        {
          "internalType": "string",
          "name": "_new_name",
          "type": "string"
        }
      ],
      "name": "ImmoBChangeNom",
      "outputs": [],
      "payable": false,
      "stateMutability": "nonpayable",
      "type": "function"
    },
    {
      "constant": false,
      "inputs": [
        {
          "internalType": "uint256",
          "name": "_id",
          "type": "uint256"
        },
        {
          "internalType": "string",
          "name": "_actual_detail",
          "type": "string"
        },
        {
          "internalType": "string",
          "name": "_new_detail",
          "type": "string"
        }
      ],
      "name": "ImmoBChangeDetail",
      "outputs": [],
      "payable": false,
      "stateMutability": "nonpayable",
      "type": "function"
    },
    {
      "constant": false,
      "inputs": [
        {
          "internalType": "uint256",
          "name": "_id",
          "type": "uint256"
        },
        {
          "internalType": "uint256",
          "name": "_actual_prix",
          "type": "uint256"
        },
        {
          "internalType": "uint256",
          "name": "_new_prix",
          "type": "uint256"
        }
      ],
      "name": "ImmoBChangePrix",
      "outputs": [],
      "payable": false,
      "stateMutability": "nonpayable",
      "type": "function"
    },
    {
      "constant": false,
      "inputs": [
        {
          "internalType": "uint256",
          "name": "_id",
          "type": "uint256"
        },
        {
          "internalType": "string",
          "name": "_actual_adress",
          "type": "string"
        },
        {
          "internalType": "string",
          "name": "_new_adress",
          "type": "string"
        }
      ],
      "name": "ImmoBChangeAdress",
      "outputs": [],
      "payable": false,
      "stateMutability": "nonpayable",
      "type": "function"
    },
    {
      "constant": false,
      "inputs": [
        {
          "internalType": "uint256",
          "name": "_id",
          "type": "uint256"
        },
        {
          "internalType": "uint256",
          "name": "_imageNb",
          "type": "uint256"
        },
        {
          "internalType": "string",
          "name": "_actual_image",
          "type": "string"
        },
        {
          "internalType": "string",
          "name": "_new_image",
          "type": "string"
        }
      ],
      "name": "ImmoBChangeImage",
      "outputs": [],
      "payable": false,
      "stateMutability": "nonpayable",
      "type": "function"
    },
    {
      "constant": false,
      "inputs": [
        {
          "internalType": "uint256",
          "name": "_id",
          "type": "uint256"
        },
        {
          "internalType": "uint256",
          "name": "_index",
          "type": "uint256"
        }
      ],
      "name": "ImmoBDelete",
      "outputs": [],
      "payable": false,
      "stateMutability": "nonpayable",
      "type": "function"
    },
    {
      "constant": false,
      "inputs": [
        {
          "internalType": "uint256",
          "name": "_id",
          "type": "uint256"
        },
        {
          "internalType": "uint256",
          "name": "_index",
          "type": "uint256"
        }
      ],
      "name": "ImmoBSetIndispo",
      "outputs": [],
      "payable": false,
      "stateMutability": "nonpayable",
      "type": "function"
    },
    {
      "constant": false,
      "inputs": [
        {
          "internalType": "uint256",
          "name": "_id",
          "type": "uint256"
        },
        {
          "internalType": "uint256",
          "name": "_index",
          "type": "uint256"
        }
      ],
      "name": "ImmoBSetDispo",
      "outputs": [],
      "payable": false,
      "stateMutability": "nonpayable",
      "type": "function"
    },
    {
      "constant": false,
      "inputs": [
        {
          "internalType": "uint256",
          "name": "_id",
          "type": "uint256"
        },
        {
          "internalType": "uint256",
          "name": "_index",
          "type": "uint256"
        },
        {
          "internalType": "string",
          "name": "_acheteur",
          "type": "string"
        }
      ],
      "name": "ImmoBSetEnCours",
      "outputs": [],
      "payable": false,
      "stateMutability": "nonpayable",
      "type": "function"
    },
    {
      "constant": false,
      "inputs": [
        {
          "internalType": "uint256",
          "name": "_id",
          "type": "uint256"
        },
        {
          "internalType": "uint256",
          "name": "_index",
          "type": "uint256"
        }
      ],
      "name": "ImmoBSetAcheter",
      "outputs": [],
      "payable": false,
      "stateMutability": "nonpayable",
      "type": "function"
    },
    {
      "constant": false,
      "inputs": [
        {
          "internalType": "uint256",
          "name": "_id",
          "type": "uint256"
        },
        {
          "internalType": "uint256",
          "name": "_index",
          "type": "uint256"
        }
      ],
      "name": "ImmoBPutIntoHistorique",
      "outputs": [],
      "payable": false,
      "stateMutability": "nonpayable",
      "type": "function"
    }
  ],
  "bytecode": "0x6080604052600a6006556040518060400160405280600c81526020017f496e646973706f6e69626c650000000000000000000000000000000000000000815250601790805190602001906200005692919062000160565b506040518060400160405280600a81526020017f446973706f6e69626c650000000000000000000000000000000000000000000081525060189080519060200190620000a492919062000160565b506040518060400160405280600781526020017f456e636f7572730000000000000000000000000000000000000000000000000081525060199080519060200190620000f292919062000160565b506040518060400160405280600781526020017f4163686574657200000000000000000000000000000000000000000000000000815250601a90805190602001906200014092919062000160565b503480156200014e57600080fd5b5060006004600101819055506200020f565b828054600181600116156101000203166002900490600052602060002090601f016020900481019282601f10620001a357805160ff1916838001178555620001d4565b82800160010185558215620001d4579182015b82811115620001d3578251825591602001919060010190620001b6565b5b509050620001e39190620001e7565b5090565b6200020c91905b8082111562000208576000816000905550600101620001ee565b5090565b90565b61440f806200021f6000396000f3fe608060405234801561001057600080fd5b50600436106101005760003560e01c8063bdb6ae3811610097578063d0dad23e11610066578063d0dad23e1461026d578063d468632d14610289578063da08e526146102a7578063f913944d146102c357610100565b8063bdb6ae38146101fd578063c2184bb614610219578063c6f7f84614610235578063cbaf35541461025157610100565b8063755c1fd8116100d3578063755c1fd81461017757806375a54bc2146101a75780637a8c0c61146101c557806394a17f2e146101e157610100565b8063168272ab146101055780631d579fac146101235780634ba6d6a41461013f57806360657b721461015b575b600080fd5b61010d6102df565b60405161011a919061413c565b60405180910390f35b61013d60048036036101389190810190613a3e565b610a67565b005b61015960048036036101549190810190613b7c565b610dea565b005b61017560048036036101709190810190613a3e565b6110b5565b005b610191600480360361018c91908101906139fd565b611438565b60405161019e91906141b7565b60405180910390f35b6101af611544565b6040516101bc919061415e565b60405180910390f35b6101df60048036036101da9190810190613cb2565b61163c565b005b6101fb60048036036101f69190810190613c1f565b61192a565b005b61021760048036036102129190810190613b7c565b611d8f565b005b610233600480360361022e9190810190613b7c565b612063565b005b61024f600480360361024a9190810190613b7c565b612337565b005b61026b60048036036102669190810190613a3e565b61275a565b005b61028760048036036102829190810190613abd565b612add565b005b610291612f70565b60405161029e91906141b7565b60405180910390f35b6102c160048036036102bc9190810190613b7c565b6130e1565b005b6102dd60048036036102d89190810190613bb8565b6133b5565b005b60606004600001805480602002602001604051908101604052809291908181526020016000905b82821015610a5e57838290600052602060002090600e0201604051806101c001604052908160008201548152602001600182018054600181600116156101000203166002900480601f0160208091040260200160405190810160405280929190818152602001828054600181600116156101000203166002900480156103cd5780601f106103a2576101008083540402835291602001916103cd565b820191906000526020600020905b8154815290600101906020018083116103b057829003601f168201915b5050505050815260200160028201548152602001600382018054600181600116156101000203166002900480601f0160208091040260200160405190810160405280929190818152602001828054600181600116156101000203166002900480156104795780601f1061044e57610100808354040283529160200191610479565b820191906000526020600020905b81548152906001019060200180831161045c57829003601f168201915b50505050508152602001600482018054600181600116156101000203166002900480601f01602080910402602001604051908101604052809291908181526020018280546001816001161561010002031660029004801561051b5780601f106104f05761010080835404028352916020019161051b565b820191906000526020600020905b8154815290600101906020018083116104fe57829003601f168201915b50505050508152602001600582018054600181600116156101000203166002900480601f0160208091040260200160405190810160405280929190818152602001828054600181600116156101000203166002900480156105bd5780601f10610592576101008083540402835291602001916105bd565b820191906000526020600020905b8154815290600101906020018083116105a057829003601f168201915b50505050508152602001600682018054600181600116156101000203166002900480601f01602080910402602001604051908101604052809291908181526020018280546001816001161561010002031660029004801561065f5780601f106106345761010080835404028352916020019161065f565b820191906000526020600020905b81548152906001019060200180831161064257829003601f168201915b50505050508152602001600782018054600181600116156101000203166002900480601f0160208091040260200160405190810160405280929190818152602001828054600181600116156101000203166002900480156107015780601f106106d657610100808354040283529160200191610701565b820191906000526020600020905b8154815290600101906020018083116106e457829003601f168201915b505050505081526020016008820160009054906101000a900460ff16151515158152602001600982018054600181600116156101000203166002900480601f0160208091040260200160405190810160405280929190818152602001828054600181600116156101000203166002900480156107be5780601f10610793576101008083540402835291602001916107be565b820191906000526020600020905b8154815290600101906020018083116107a157829003601f168201915b50505050508152602001600a82018054600181600116156101000203166002900480601f0160208091040260200160405190810160405280929190818152602001828054600181600116156101000203166002900480156108605780601f1061083557610100808354040283529160200191610860565b820191906000526020600020905b81548152906001019060200180831161084357829003601f168201915b50505050508152602001600b82018054600181600116156101000203166002900480601f0160208091040260200160405190810160405280929190818152602001828054600181600116156101000203166002900480156109025780601f106108d757610100808354040283529160200191610902565b820191906000526020600020905b8154815290600101906020018083116108e557829003601f168201915b50505050508152602001600c82018054600181600116156101000203166002900480601f0160208091040260200160405190810160405280929190818152602001828054600181600116156101000203166002900480156109a45780601f10610979576101008083540402835291602001916109a4565b820191906000526020600020905b81548152906001019060200180831161098757829003601f168201915b50505050508152602001600d82018054600181600116156101000203166002900480601f016020809104026020016040519081016040528092919081815260200182805460018160011615610100020316600290048015610a465780601f10610a1b57610100808354040283529160200191610a46565b820191906000526020600020905b815481529060010190602001808311610a2957829003601f168201915b50505050508152505081526020019060010190610306565b50505050905090565b8260008082815260200190815260200160002060009054906101000a900473ffffffffffffffffffffffffffffffffffffffff1673ffffffffffffffffffffffffffffffffffffffff163373ffffffffffffffffffffffffffffffffffffffff1614610ad257600080fd5b60008090505b600160046001015403811015610de357600060046000018281548110610afa57fe5b90600052602060002090600e0201905073__Utils_________________________________6388d8da5f82600301876040518363ffffffff1660e01b8152600401610b46929190614180565b60206040518083038186803b158015610b5e57600080fd5b505af4158015610b72573d6000803e3d6000fd5b505050506040513d601f19601f82011682018060405250610b9691908101906139d4565b15610dd55783816003019080519060200190610bb39291906136db565b508060046000018381548110610bc557fe5b90600052602060002090600e02016000820154816000015560018201816001019080546001816001161561010002031660029004610c0492919061375b565b506002820154816002015560038201816003019080546001816001161561010002031660029004610c3692919061375b565b5060048201816004019080546001816001161561010002031660029004610c5e92919061375b565b5060058201816005019080546001816001161561010002031660029004610c8692919061375b565b5060068201816006019080546001816001161561010002031660029004610cae92919061375b565b5060078201816007019080546001816001161561010002031660029004610cd692919061375b565b506008820160009054906101000a900460ff168160080160006101000a81548160ff02191690831515021790555060098201816009019080546001816001161561010002031660029004610d2b92919061375b565b50600a820181600a019080546001816001161561010002031660029004610d5392919061375b565b50600b820181600b019080546001816001161561010002031660029004610d7b92919061375b565b50600c820181600c019080546001816001161561010002031660029004610da392919061375b565b50600d820181600d019080546001816001161561010002031660029004610dcb92919061375b565b5090505050610de3565b508080600101915050610ad8565b5050505050565b8160008082815260200190815260200160002060009054906101000a900473ffffffffffffffffffffffffffffffffffffffff1673ffffffffffffffffffffffffffffffffffffffff163373ffffffffffffffffffffffffffffffffffffffff1614610e5557600080fd5b600060046000018381548110610e6757fe5b90600052602060002090600e0201905060018160080160006101000a81548160ff0219169083151502179055508060046000018481548110610ea557fe5b90600052602060002090600e02016000820154816000015560018201816001019080546001816001161561010002031660029004610ee492919061375b565b506002820154816002015560038201816003019080546001816001161561010002031660029004610f1692919061375b565b5060048201816004019080546001816001161561010002031660029004610f3e92919061375b565b5060058201816005019080546001816001161561010002031660029004610f6692919061375b565b5060068201816006019080546001816001161561010002031660029004610f8e92919061375b565b5060078201816007019080546001816001161561010002031660029004610fb692919061375b565b506008820160009054906101000a900460ff168160080160006101000a81548160ff0219169083151502179055506009820181600901908054600181600116156101000203166002900461100b92919061375b565b50600a820181600a01908054600181600116156101000203166002900461103392919061375b565b50600b820181600b01908054600181600116156101000203166002900461105b92919061375b565b50600c820181600c01908054600181600116156101000203166002900461108392919061375b565b50600d820181600d0190805460018160011615610100020316600290046110ab92919061375b565b5090505050505050565b8260008082815260200190815260200160002060009054906101000a900473ffffffffffffffffffffffffffffffffffffffff1673ffffffffffffffffffffffffffffffffffffffff163373ffffffffffffffffffffffffffffffffffffffff161461112057600080fd5b60008090505b6001600460010154038110156114315760006004600001828154811061114857fe5b90600052602060002090600e0201905073__Utils_________________________________6388d8da5f82600101876040518363ffffffff1660e01b8152600401611194929190614180565b60206040518083038186803b1580156111ac57600080fd5b505af41580156111c0573d6000803e3d6000fd5b505050506040513d601f19601f820116820180604052506111e491908101906139d4565b1561142357838160010190805190602001906112019291906136db565b50806004600001838154811061121357fe5b90600052602060002090600e0201600082015481600001556001820181600101908054600181600116156101000203166002900461125292919061375b565b50600282015481600201556003820181600301908054600181600116156101000203166002900461128492919061375b565b50600482018160040190805460018160011615610100020316600290046112ac92919061375b565b50600582018160050190805460018160011615610100020316600290046112d492919061375b565b50600682018160060190805460018160011615610100020316600290046112fc92919061375b565b506007820181600701908054600181600116156101000203166002900461132492919061375b565b506008820160009054906101000a900460ff168160080160006101000a81548160ff0219169083151502179055506009820181600901908054600181600116156101000203166002900461137992919061375b565b50600a820181600a0190805460018160011615610100020316600290046113a192919061375b565b50600b820181600b0190805460018160011615610100020316600290046113c992919061375b565b50600c820181600c0190805460018160011615610100020316600290046113f192919061375b565b50600d820181600d01908054600181600116156101000203166002900461141992919061375b565b5090505050611431565b508080600101915050611126565b5050505050565b600081600360003373ffffffffffffffffffffffffffffffffffffffff1673ffffffffffffffffffffffffffffffffffffffff168152602001908152602001600020908051906020019061148d9291906136db565b506000611499836136a3565b9050600260003373ffffffffffffffffffffffffffffffffffffffff1673ffffffffffffffffffffffffffffffffffffffff168152602001908152602001600020600081548092919060010191905055503360008083815260200190815260200160002060006101000a81548173ffffffffffffffffffffffffffffffffffffffff021916908373ffffffffffffffffffffffffffffffffffffffff16021790555080915050919050565b60606000600260003373ffffffffffffffffffffffffffffffffffffffff1673ffffffffffffffffffffffffffffffffffffffff168152602001908152602001600020549050600160008281526020019081526020016000208054600181600116156101000203166002900480601f0160208091040260200160405190810160405280929190818152602001828054600181600116156101000203166002900480156116315780601f1061160657610100808354040283529160200191611631565b820191906000526020600020905b81548152906001019060200180831161161457829003601f168201915b505050505091505090565b8260008082815260200190815260200160002060009054906101000a900473ffffffffffffffffffffffffffffffffffffffff1673ffffffffffffffffffffffffffffffffffffffff163373ffffffffffffffffffffffffffffffffffffffff16146116a757600080fd5b60008090505b600160046001015403811015611923576000600460000182815481106116cf57fe5b90600052602060002090600e02019050848160020154141561191557838160020181905550806004600001838154811061170557fe5b90600052602060002090600e0201600082015481600001556001820181600101908054600181600116156101000203166002900461174492919061375b565b50600282015481600201556003820181600301908054600181600116156101000203166002900461177692919061375b565b506004820181600401908054600181600116156101000203166002900461179e92919061375b565b50600582018160050190805460018160011615610100020316600290046117c692919061375b565b50600682018160060190805460018160011615610100020316600290046117ee92919061375b565b506007820181600701908054600181600116156101000203166002900461181692919061375b565b506008820160009054906101000a900460ff168160080160006101000a81548160ff0219169083151502179055506009820181600901908054600181600116156101000203166002900461186b92919061375b565b50600a820181600a01908054600181600116156101000203166002900461189392919061375b565b50600b820181600b0190805460018160011615610100020316600290046118bb92919061375b565b50600c820181600c0190805460018160011615610100020316600290046118e392919061375b565b50600d820181600d01908054600181600116156101000203166002900461190b92919061375b565b5090505050611923565b5080806001019150506116ad565b5050505050565b8360008082815260200190815260200160002060009054906101000a900473ffffffffffffffffffffffffffffffffffffffff1673ffffffffffffffffffffffffffffffffffffffff163373ffffffffffffffffffffffffffffffffffffffff161461199557600080fd5b60008090505b600160046001015403811015611d87576000600460000182815481106119bd57fe5b90600052602060002090600e02019050600186148015611a65575073__Utils_________________________________6388d8da5f82600901876040518363ffffffff1660e01b8152600401611a14929190614180565b60206040518083038186803b158015611a2c57600080fd5b505af4158015611a40573d6000803e3d6000fd5b505050506040513d601f19601f82011682018060405250611a6491908101906139d4565b5b15611a895783816009019080519060200190611a829291906136db565b5050611d87565b600286148015611b21575073__Utils_________________________________6388d8da5f82600a01876040518363ffffffff1660e01b8152600401611ad0929190614180565b60206040518083038186803b158015611ae857600080fd5b505af4158015611afc573d6000803e3d6000fd5b505050506040513d601f19601f82011682018060405250611b2091908101906139d4565b5b15611b45578381600a019080519060200190611b3e9291906136db565b5050611d87565b600386148015611bdd575073__Utils_________________________________6388d8da5f82600b01876040518363ffffffff1660e01b8152600401611b8c929190614180565b60206040518083038186803b158015611ba457600080fd5b505af4158015611bb8573d6000803e3d6000fd5b505050506040513d601f19601f82011682018060405250611bdc91908101906139d4565b5b15611c01578381600b019080519060200190611bfa9291906136db565b5050611d87565b600486148015611c99575073__Utils_________________________________6388d8da5f82600c01876040518363ffffffff1660e01b8152600401611c48929190614180565b60206040518083038186803b158015611c6057600080fd5b505af4158015611c74573d6000803e3d6000fd5b505050506040513d601f19601f82011682018060405250611c9891908101906139d4565b5b15611cbd578381600c019080519060200190611cb69291906136db565b5050611d87565b600586148015611d55575073__Utils_________________________________6388d8da5f82600d01876040518363ffffffff1660e01b8152600401611d04929190614180565b60206040518083038186803b158015611d1c57600080fd5b505af4158015611d30573d6000803e3d6000fd5b505050506040513d601f19601f82011682018060405250611d5491908101906139d4565b5b15611d79578381600d019080519060200190611d729291906136db565b5050611d87565b50808060010191505061199b565b505050505050565b8160008082815260200190815260200160002060009054906101000a900473ffffffffffffffffffffffffffffffffffffffff1673ffffffffffffffffffffffffffffffffffffffff163373ffffffffffffffffffffffffffffffffffffffff1614611dfa57600080fd5b600060046000018381548110611e0c57fe5b90600052602060002090600e020190506018816006019080546001816001161561010002031660029004611e419291906137e2565b508060046000018581548110611e5357fe5b90600052602060002090600e02016000820154816000015560018201816001019080546001816001161561010002031660029004611e9292919061375b565b506002820154816002015560038201816003019080546001816001161561010002031660029004611ec492919061375b565b5060048201816004019080546001816001161561010002031660029004611eec92919061375b565b5060058201816005019080546001816001161561010002031660029004611f1492919061375b565b5060068201816006019080546001816001161561010002031660029004611f3c92919061375b565b5060078201816007019080546001816001161561010002031660029004611f6492919061375b565b506008820160009054906101000a900460ff168160080160006101000a81548160ff02191690831515021790555060098201816009019080546001816001161561010002031660029004611fb992919061375b565b50600a820181600a019080546001816001161561010002031660029004611fe192919061375b565b50600b820181600b01908054600181600116156101000203166002900461200992919061375b565b50600c820181600c01908054600181600116156101000203166002900461203192919061375b565b50600d820181600d01908054600181600116156101000203166002900461205992919061375b565b5090505050505050565b8160008082815260200190815260200160002060009054906101000a900473ffffffffffffffffffffffffffffffffffffffff1673ffffffffffffffffffffffffffffffffffffffff163373ffffffffffffffffffffffffffffffffffffffff16146120ce57600080fd5b6000600460000183815481106120e057fe5b90600052602060002090600e02019050601a8160060190805460018160011615610100020316600290046121159291906137e2565b50806004600001848154811061212757fe5b90600052602060002090600e0201600082015481600001556001820181600101908054600181600116156101000203166002900461216692919061375b565b50600282015481600201556003820181600301908054600181600116156101000203166002900461219892919061375b565b50600482018160040190805460018160011615610100020316600290046121c092919061375b565b50600582018160050190805460018160011615610100020316600290046121e892919061375b565b506006820181600601908054600181600116156101000203166002900461221092919061375b565b506007820181600701908054600181600116156101000203166002900461223892919061375b565b506008820160009054906101000a900460ff168160080160006101000a81548160ff0219169083151502179055506009820181600901908054600181600116156101000203166002900461228d92919061375b565b50600a820181600a0190805460018160011615610100020316600290046122b592919061375b565b50600b820181600b0190805460018160011615610100020316600290046122dd92919061375b565b50600c820181600c01908054600181600116156101000203166002900461230592919061375b565b50600d820181600d01908054600181600116156101000203166002900461232d92919061375b565b5090505050505050565b8160008082815260200190815260200160002060009054906101000a900473ffffffffffffffffffffffffffffffffffffffff1673ffffffffffffffffffffffffffffffffffffffff163373ffffffffffffffffffffffffffffffffffffffff16146123a257600080fd5b600080905060008090505b60016004600101540381101561263d576000600460000182815481106123cf57fe5b90600052602060002090600e02019050848214806123ea5750825b1561262f576004600001600183018154811061240257fe5b90600052602060002090600e02016004600001838154811061242057fe5b90600052602060002090600e0201600082015481600001556001820181600101908054600181600116156101000203166002900461245f92919061375b565b50600282015481600201556003820181600301908054600181600116156101000203166002900461249192919061375b565b50600482018160040190805460018160011615610100020316600290046124b992919061375b565b50600582018160050190805460018160011615610100020316600290046124e192919061375b565b506006820181600601908054600181600116156101000203166002900461250992919061375b565b506007820181600701908054600181600116156101000203166002900461253192919061375b565b506008820160009054906101000a900460ff168160080160006101000a81548160ff0219169083151502179055506009820181600901908054600181600116156101000203166002900461258692919061375b565b50600a820181600a0190805460018160011615610100020316600290046125ae92919061375b565b50600b820181600b0190805460018160011615610100020316600290046125d692919061375b565b50600c820181600c0190805460018160011615610100020316600290046125fe92919061375b565b50600d820181600d01908054600181600116156101000203166002900461262692919061375b565b50905050600192505b5080806001019150506123ad565b5060046000016001600460000180549050038154811061265957fe5b90600052602060002090600e02016000808201600090556001820160006126809190613869565b60028201600090556003820160006126989190613869565b6004820160006126a89190613869565b6005820160006126b89190613869565b6006820160006126c89190613869565b6007820160006126d89190613869565b6008820160006101000a81549060ff02191690556009820160006126fc9190613869565b600a8201600061270c9190613869565b600b8201600061271c9190613869565b600c8201600061272c9190613869565b600d8201600061273c9190613869565b50506004600101600081548092919060019003919050555050505050565b8260008082815260200190815260200160002060009054906101000a900473ffffffffffffffffffffffffffffffffffffffff1673ffffffffffffffffffffffffffffffffffffffff163373ffffffffffffffffffffffffffffffffffffffff16146127c557600080fd5b60008090505b600160046001015403811015612ad6576000600460000182815481106127ed57fe5b90600052602060002090600e0201905073__Utils_________________________________6388d8da5f82600401876040518363ffffffff1660e01b8152600401612839929190614180565b60206040518083038186803b15801561285157600080fd5b505af4158015612865573d6000803e3d6000fd5b505050506040513d601f19601f8201168201806040525061288991908101906139d4565b15612ac857838160040190805190602001906128a69291906136db565b5080600460000183815481106128b857fe5b90600052602060002090600e020160008201548160000155600182018160010190805460018160011615610100020316600290046128f792919061375b565b50600282015481600201556003820181600301908054600181600116156101000203166002900461292992919061375b565b506004820181600401908054600181600116156101000203166002900461295192919061375b565b506005820181600501908054600181600116156101000203166002900461297992919061375b565b50600682018160060190805460018160011615610100020316600290046129a192919061375b565b50600782018160070190805460018160011615610100020316600290046129c992919061375b565b506008820160009054906101000a900460ff168160080160006101000a81548160ff02191690831515021790555060098201816009019080546001816001161561010002031660029004612a1e92919061375b565b50600a820181600a019080546001816001161561010002031660029004612a4692919061375b565b50600b820181600b019080546001816001161561010002031660029004612a6e92919061375b565b50600c820181600c019080546001816001161561010002031660029004612a9692919061375b565b50600d820181600d019080546001816001161561010002031660029004612abe92919061375b565b5090505050612ad6565b5080806001019150506127cb565b5050505050565b8460008082815260200190815260200160002060009054906101000a900473ffffffffffffffffffffffffffffffffffffffff1673ffffffffffffffffffffffffffffffffffffffff163373ffffffffffffffffffffffffffffffffffffffff1614612b4857600080fd5b600060046000018054905090506004600001604051806101c00160405280898152602001888152602001878152602001868152602001858152602001600160008b81526020019081526020016000208054600181600116156101000203166002900480601f016020809104026020016040519081016040528092919081815260200182805460018160011615610100020316600290048015612c2b5780601f10612c0057610100808354040283529160200191612c2b565b820191906000526020600020905b815481529060010190602001808311612c0e57829003601f168201915b5050505050815260200160188054600181600116156101000203166002900480601f016020809104026020016040519081016040528092919081815260200182805460018160011615610100020316600290048015612ccb5780601f10612ca057610100808354040283529160200191612ccb565b820191906000526020600020905b815481529060010190602001808311612cae57829003601f168201915b50505050508152602001604051806020016040528060008152508152602001600015158152602001604051806020016040528060008152508152602001604051806020016040528060008152508152602001604051806020016040528060008152508152602001604051806020016040528060008152508152602001604051806020016040528060008152508152509080600181540180825580915050906001820390600052602060002090600e020160009091929091909150600082015181600001556020820151816001019080519060200190612dab9291906138b1565b50604082015181600201556060820151816003019080519060200190612dd29291906138b1565b506080820151816004019080519060200190612def9291906138b1565b5060a0820151816005019080519060200190612e0c9291906138b1565b5060c0820151816006019080519060200190612e299291906138b1565b5060e0820151816007019080519060200190612e469291906138b1565b506101008201518160080160006101000a81548160ff021916908315150217905550610120820151816009019080519060200190612e859291906138b1565b5061014082015181600a019080519060200190612ea39291906138b1565b5061016082015181600b019080519060200190612ec19291906138b1565b5061018082015181600c019080519060200190612edf9291906138b1565b506101a082015181600d019080519060200190612efd9291906138b1565b505050506004600101600081548092919060010191905055507f5dc53bc0925c252040faef4dc685e13114a728826ec9e7a5d55a16c2add5f6f187600160008a8152602001908152602001600020888888604051612f5f9594939291906141d2565b60405180910390a150505050505050565b6000600260003373ffffffffffffffffffffffffffffffffffffffff1673ffffffffffffffffffffffffffffffffffffffff16815260200190815260200160002054613092600360003373ffffffffffffffffffffffffffffffffffffffff1673ffffffffffffffffffffffffffffffffffffffff1681526020019081526020016000208054600181600116156101000203166002900480601f0160208091040260200160405190810160405280929190818152602001828054600181600116156101000203166002900480156130885780601f1061305d57610100808354040283529160200191613088565b820191906000526020600020905b81548152906001019060200180831161306b57829003601f168201915b50505050506136a3565b1461309c57600080fd5b600260003373ffffffffffffffffffffffffffffffffffffffff1673ffffffffffffffffffffffffffffffffffffffff16815260200190815260200160002054905090565b8160008082815260200190815260200160002060009054906101000a900473ffffffffffffffffffffffffffffffffffffffff1673ffffffffffffffffffffffffffffffffffffffff163373ffffffffffffffffffffffffffffffffffffffff161461314c57600080fd5b60006004600001838154811061315e57fe5b90600052602060002090600e0201905060178160060190805460018160011615610100020316600290046131939291906137e2565b5080600460000184815481106131a557fe5b90600052602060002090600e020160008201548160000155600182018160010190805460018160011615610100020316600290046131e492919061375b565b50600282015481600201556003820181600301908054600181600116156101000203166002900461321692919061375b565b506004820181600401908054600181600116156101000203166002900461323e92919061375b565b506005820181600501908054600181600116156101000203166002900461326692919061375b565b506006820181600601908054600181600116156101000203166002900461328e92919061375b565b50600782018160070190805460018160011615610100020316600290046132b692919061375b565b506008820160009054906101000a900460ff168160080160006101000a81548160ff0219169083151502179055506009820181600901908054600181600116156101000203166002900461330b92919061375b565b50600a820181600a01908054600181600116156101000203166002900461333392919061375b565b50600b820181600b01908054600181600116156101000203166002900461335b92919061375b565b50600c820181600c01908054600181600116156101000203166002900461338392919061375b565b50600d820181600d0190805460018160011615610100020316600290046133ab92919061375b565b5090505050505050565b8260008082815260200190815260200160002060009054906101000a900473ffffffffffffffffffffffffffffffffffffffff1673ffffffffffffffffffffffffffffffffffffffff163373ffffffffffffffffffffffffffffffffffffffff161461342057600080fd5b60006004600001848154811061343257fe5b90600052602060002090600e0201905060198160060190805460018160011615610100020316600290046134679291906137e2565b50828160070190805190602001906134809291906136db565b50806004600001858154811061349257fe5b90600052602060002090600e020160008201548160000155600182018160010190805460018160011615610100020316600290046134d192919061375b565b50600282015481600201556003820181600301908054600181600116156101000203166002900461350392919061375b565b506004820181600401908054600181600116156101000203166002900461352b92919061375b565b506005820181600501908054600181600116156101000203166002900461355392919061375b565b506006820181600601908054600181600116156101000203166002900461357b92919061375b565b50600782018160070190805460018160011615610100020316600290046135a392919061375b565b506008820160009054906101000a900460ff168160080160006101000a81548160ff021916908315150217905550600982018160090190805460018160011615610100020316600290046135f892919061375b565b50600a820181600a01908054600181600116156101000203166002900461362092919061375b565b50600b820181600b01908054600181600116156101000203166002900461364892919061375b565b50600c820181600c01908054600181600116156101000203166002900461367092919061375b565b50600d820181600d01908054600181600116156101000203166002900461369892919061375b565b509050505050505050565b600080826040516020016136b79190614125565b6040516020818303038152906040528051906020012060001c905080915050919050565b828054600181600116156101000203166002900490600052602060002090601f016020900481019282601f1061371c57805160ff191683800117855561374a565b8280016001018555821561374a579182015b8281111561374957825182559160200191906001019061372e565b5b5090506137579190613931565b5090565b828054600181600116156101000203166002900490600052602060002090601f016020900481019282601f1061379457805485556137d1565b828001600101855582156137d157600052602060002091601f016020900482015b828111156137d05782548255916001019190600101906137b5565b5b5090506137de9190613931565b5090565b828054600181600116156101000203166002900490600052602060002090601f016020900481019282601f1061381b5780548555613858565b8280016001018555821561385857600052602060002091601f016020900482015b8281111561385757825482559160010191906001019061383c565b5b5090506138659190613931565b5090565b50805460018160011615610100020316600290046000825580601f1061388f57506138ae565b601f0160209004906000526020600020908101906138ad9190613931565b5b50565b828054600181600116156101000203166002900490600052602060002090601f016020900481019282601f106138f257805160ff1916838001178555613920565b82800160010185558215613920579182015b8281111561391f578251825591602001919060010190613904565b5b50905061392d9190613931565b5090565b61395391905b8082111561394f576000816000905550600101613937565b5090565b90565b6000815190506139658161439e565b92915050565b600082601f83011261397c57600080fd5b813561398f61398a82614267565b61423a565b915080825260208301602083018583830111156139ab57600080fd5b6139b683828461434b565b50505092915050565b6000813590506139ce816143b5565b92915050565b6000602082840312156139e657600080fd5b60006139f484828501613956565b91505092915050565b600060208284031215613a0f57600080fd5b600082013567ffffffffffffffff811115613a2957600080fd5b613a358482850161396b565b91505092915050565b600080600060608486031215613a5357600080fd5b6000613a61868287016139bf565b935050602084013567ffffffffffffffff811115613a7e57600080fd5b613a8a8682870161396b565b925050604084013567ffffffffffffffff811115613aa757600080fd5b613ab38682870161396b565b9150509250925092565b600080600080600060a08688031215613ad557600080fd5b6000613ae3888289016139bf565b955050602086013567ffffffffffffffff811115613b0057600080fd5b613b0c8882890161396b565b9450506040613b1d888289016139bf565b935050606086013567ffffffffffffffff811115613b3a57600080fd5b613b468882890161396b565b925050608086013567ffffffffffffffff811115613b6357600080fd5b613b6f8882890161396b565b9150509295509295909350565b60008060408385031215613b8f57600080fd5b6000613b9d858286016139bf565b9250506020613bae858286016139bf565b9150509250929050565b600080600060608486031215613bcd57600080fd5b6000613bdb868287016139bf565b9350506020613bec868287016139bf565b925050604084013567ffffffffffffffff811115613c0957600080fd5b613c158682870161396b565b9150509250925092565b60008060008060808587031215613c3557600080fd5b6000613c43878288016139bf565b9450506020613c54878288016139bf565b935050604085013567ffffffffffffffff811115613c7157600080fd5b613c7d8782880161396b565b925050606085013567ffffffffffffffff811115613c9a57600080fd5b613ca68782880161396b565b91505092959194509250565b600080600060608486031215613cc757600080fd5b6000613cd5868287016139bf565b9350506020613ce6868287016139bf565b9250506040613cf7868287016139bf565b9150509250925092565b6000613d0d8383613f93565b905092915050565b6000613d20826142b8565b613d2a81856142e6565b935083602082028501613d3c85614293565b8060005b85811015613d785784840389528151613d598582613d01565b9450613d64836142d9565b925060208a01995050600181019050613d40565b50829750879550505050505092915050565b613d9381614335565b82525050565b6000613da4826142ce565b613dae8185614308565b9350613dbe81856020860161435a565b613dc78161438d565b840191505092915050565b6000613ddd826142ce565b613de78185614319565b9350613df781856020860161435a565b613e008161438d565b840191505092915050565b6000613e16826142ce565b613e20818561432a565b9350613e3081856020860161435a565b80840191505092915050565b6000613e47826142c3565b613e5181856142f7565b9350613e6181856020860161435a565b613e6a8161438d565b840191505092915050565b600081546001811660008114613e925760018114613eb857613efc565b607f6002830416613ea38187614308565b955060ff198316865260208601935050613efc565b60028204613ec68187614308565b9550613ed1856142a3565b60005b82811015613ef357815481890152600182019150602081019050613ed4565b80880195505050505b505092915050565b600081546001811660008114613f215760018114613f4757613f8b565b607f6002830416613f328187614319565b955060ff198316865260208601935050613f8b565b60028204613f558187614319565b9550613f60856142a3565b60005b82811015613f8257815481890152600182019150602081019050613f63565b80880195505050505b505092915050565b60006101c083016000830151613fac6000860182614107565b5060208301518482036020860152613fc48282613e3c565b9150506040830151613fd96040860182614107565b5060608301518482036060860152613ff18282613e3c565b9150506080830151848203608086015261400b8282613e3c565b91505060a083015184820360a08601526140258282613e3c565b91505060c083015184820360c086015261403f8282613e3c565b91505060e083015184820360e08601526140598282613e3c565b915050610100830151614070610100860182613d8a565b5061012083015184820361012086015261408a8282613e3c565b9150506101408301518482036101408601526140a68282613e3c565b9150506101608301518482036101608601526140c28282613e3c565b9150506101808301518482036101808601526140de8282613e3c565b9150506101a08301518482036101a08601526140fa8282613e3c565b9150508091505092915050565b61411081614341565b82525050565b61411f81614341565b82525050565b60006141318284613e0b565b915081905092915050565b600060208201905081810360008301526141568184613d15565b905092915050565b600060208201905081810360008301526141788184613d99565b905092915050565b6000604082019050818103600083015261419a8185613f04565b905081810360208301526141ae8184613dd2565b90509392505050565b60006020820190506141cc6000830184614116565b92915050565b600060a0820190506141e76000830188614116565b81810360208301526141f98187613e75565b9050818103604083015261420d8186613d99565b905061421c6060830185614116565b818103608083015261422e8184613d99565b90509695505050505050565b6000604051905081810181811067ffffffffffffffff8211171561425d57600080fd5b8060405250919050565b600067ffffffffffffffff82111561427e57600080fd5b601f19601f8301169050602081019050919050565b6000819050602082019050919050565b60008190508160005260206000209050919050565b600081519050919050565b600081519050919050565b600081519050919050565b6000602082019050919050565b600082825260208201905092915050565b600082825260208201905092915050565b600082825260208201905092915050565b600082825260208201905092915050565b600081905092915050565b60008115159050919050565b6000819050919050565b82818337600083830152505050565b60005b8381101561437857808201518184015260208101905061435d565b83811115614387576000848401525b50505050565b6000601f19601f8301169050919050565b6143a781614335565b81146143b257600080fd5b50565b6143be81614341565b81146143c957600080fd5b5056fea365627a7a72315820d4574fa9432049e0c0065a04925f51533bba305cde4032aca56f4584a88562416c6578706572696d656e74616cf564736f6c63430005100040",
  "source": "pragma solidity >=0.4.0 <=0.8.0;\r\npragma experimental ABIEncoderV2;\r\nimport './UsersContract.sol';\r\nimport './outside/token.sol';\r\nimport './outside/utils.sol';\r\ncontract BienImmoContract is UsersContract {\r\n\r\n    struct Immobien {\r\n        uint id;\r\n        string nom;\r\n        uint prix;\r\n        string adress;\r\n        string detail;\r\n        string vendeur;\r\n        string achat_status;\r\n        string acheteur;\r\n        bool archiver;\r\n        string image1;\r\n        string image2;\r\n        string image3;\r\n        string image4;\r\n        string image5;\r\n    }\r\n    struct StoreImmob {\r\n        Immobien[] immobs; \r\n        uint count;\r\n    }\r\n    StoreImmob immobStored;\r\n    uint IMMO_LENGTH = 10;\r\n    \r\n    Immobien last_add_immob;\r\n    mapping(address => uint) ownerImmob;\r\n    mapping(uint => address) immobToOwner;\r\n\r\n    constructor() public {\r\n        immobStored.count = 0;\r\n    }\r\n\r\n\r\n    //interne\r\n    string private STATUS_INDISPO = 'Indisponible';\r\n    string private STATUS_DISPO = 'Disponible';\r\n    string private STATUS_ENCOURS = 'Encours';\r\n    string private STATUS_ACHETER = 'Acheter';\r\n    \r\n    // Accesseur:  ajout\r\n    event ImmoBaddEvent(uint _id, string _user, string _nom, uint _prix, string _adress);\r\n\r\n    function addBienImmo(uint _ownerId, string memory _nom, uint _prix, string memory _immo_address, \r\n    string memory _detail) public onlyOwnerOf(_ownerId) {\r\n        uint taille = immobStored.immobs.length;\r\n        immobStored.immobs.push( Immobien(_ownerId, _nom, _prix, _immo_address, _detail, idName[_ownerId], STATUS_DISPO, '', false, '','','','',''));\r\n        immobStored.count++;\r\n        // immobStored = StoreImmob({\r\n        //     immobs: _createImmob(_ownerId, _nom, _prix, _immo_address, _detail),\r\n        //     count: taille + 1 \r\n        // });\r\n        emit ImmoBaddEvent(_ownerId, idName[_ownerId], _nom, _prix, _immo_address);\r\n    }\r\n    // function _createImmob(uint _ownerId, string memory _nom, uint _prix, string memory _immo_address, string memory _detail) \r\n    //     private returns(Immobien storage) {\r\n    //     return Immobien(_ownerId, _nom, _prix, _immo_address, _detail, idName[_ownerId], STATUS_DISPO, '', false, '','','','','');\r\n    // }\r\n    // Accesseur: lecture\r\n    function ImmoBListread()  public view returns (Immobien[] memory) {\r\n        return immobStored.immobs;\r\n    }\r\n    // Accesseur: lecture des bien appartenant au proprietaire\r\n    function search(uint _indexP) private returns(Immobien memory) {\r\n        return immobStored.immobs[_indexP];\r\n    }\r\n\r\n    // modificateur\r\n    // modificateur: modeifier le champs d'un bien\r\n    function ImmoBChangeNom(uint _id, string memory _actual_name, string memory _new_name) public onlyOwnerOf(_id) {\r\n        for (uint i = 0; i < immobStored.count-1; i++) {\r\n            Immobien storage immo = immobStored.immobs[i];\r\n            if(Utils.equals(immo.nom, _actual_name)) {\r\n                immo.nom = _new_name;\r\n                immobStored.immobs[i] = immo;\r\n                break;\r\n            }\r\n        }\r\n    }\r\n    function ImmoBChangeDetail(uint _id, string memory _actual_detail, string memory _new_detail) public onlyOwnerOf(_id) {\r\n        for (uint i = 0; i < immobStored.count-1; i++) {\r\n            Immobien storage immo = immobStored.immobs[i];\r\n            if(Utils.equals(immo.detail, _actual_detail)) {\r\n                immo.detail = _new_detail;\r\n                immobStored.immobs[i] = immo;\r\n                break;\r\n            }\r\n        }\r\n    }\r\n    function ImmoBChangePrix(uint _id,  uint _actual_prix, uint _new_prix) public onlyOwnerOf(_id) {\r\n        for (uint i = 0; i <  immobStored.count-1; i++) {\r\n             Immobien storage immo = immobStored.immobs[i];\r\n            if(immo.prix == _actual_prix) {\r\n                immo.prix = _new_prix;\r\n                immobStored.immobs[i] = immo;\r\n                break;\r\n            }\r\n        }\r\n    }\r\n    function ImmoBChangeAdress(uint _id, string memory _actual_adress, string memory _new_adress) public onlyOwnerOf(_id) {\r\n        for (uint i = 0; i <  immobStored.count-1; i++) {\r\n             Immobien storage immo = immobStored.immobs[i];\r\n            if(Utils.equals(immo.adress, _actual_adress)) {\r\n                immo.adress = _new_adress;\r\n                immobStored.immobs[i] = immo;\r\n                break;\r\n            }\r\n        }\r\n    }\r\n    function ImmoBChangeImage(uint _id, uint _imageNb,  string memory _actual_image, string memory _new_image) public onlyOwnerOf(_id) {\r\n        \r\n        for (uint i = 0; i < immobStored.count-1; i++) {\r\n            Immobien storage immo = immobStored.immobs[i];\r\n            if(_imageNb == 1 && Utils.equals(immo.image1, _actual_image)){\r\n                immo.image1 = _new_image;\r\n                break;\r\n            }\r\n            if(_imageNb == 2 && Utils.equals(immo.image2, _actual_image)){\r\n                immo.image2 = _new_image;\r\n                break;\r\n            }\r\n            if(_imageNb == 3 && Utils.equals(immo.image3, _actual_image)){\r\n                immo.image3 = _new_image;\r\n                break;\r\n            }\r\n            if(_imageNb == 4 && Utils.equals(immo.image4, _actual_image)){\r\n                immo.image4 = _new_image;\r\n                break;\r\n            }\r\n            if(_imageNb == 5 && Utils.equals(immo.image5, _actual_image)){\r\n                immo.image5 = _new_image;\r\n                break;\r\n            }\r\n        }\r\n\r\n    }\r\n    // modificateur: supression d'un bien\r\n    function ImmoBDelete(uint _id, uint _index) public onlyOwnerOf(_id) {\r\n\r\n        bool turnover = false;\r\n        for(uint i = 0; i < immobStored.count-1 ; i++){\r\n            Immobien storage immo = immobStored.immobs[i];\r\n            if(i == _index || turnover){\r\n                immobStored.immobs[i] = immobStored.immobs[i + 1];\r\n                turnover = true;\r\n            }\r\n        }\r\n        delete immobStored.immobs[immobStored.immobs.length - 1];\r\n        immobStored.count--;\r\n        //immobStored[_id] = immo_copy;\r\n    }\r\n    // modificateur: desactivation et activation d'un bien\r\n    function ImmoBSetIndispo(uint _id, uint _index) public onlyOwnerOf(_id) {\r\n        Immobien storage immo = immobStored.immobs[_index];\r\n        immo.achat_status = STATUS_INDISPO;\r\n        immobStored.immobs[_index] = immo;\r\n    }\r\n\r\n    function ImmoBSetDispo(uint _id, uint _index) public onlyOwnerOf(_id) {\r\n        Immobien storage immo = immobStored.immobs[_index];\r\n        immo.achat_status = STATUS_DISPO;\r\n        immobStored.immobs[_id] = immo;\r\n    }\r\n\r\n    // modificateur: mettre dans panier\r\n    function ImmoBSetEnCours(uint _id, uint _index, string memory _acheteur) public onlyOwnerOf(_id) {\r\n        Immobien storage immo = immobStored.immobs[_index];\r\n        immo.achat_status = STATUS_ENCOURS;\r\n        immo.acheteur = _acheteur;\r\n        immobStored.immobs[_index] = immo;\r\n    }\r\n\r\n    // modificateur:enlever du panier\r\n      // => this.ImmoBSetDispo({id})\r\n\r\n    // modificateur: acheter et transaction d'achat\r\n    function ImmoBSetAcheter(uint _id, uint _index) public onlyOwnerOf(_id) {\r\n        // transaction d'achat\r\n        Immobien storage immo =  immobStored.immobs[_index];\r\n        immo.achat_status = STATUS_ACHETER;\r\n        immobStored.immobs[_index] = immo;\r\n    }\r\n\r\n    // modificateur: archiver\r\n    function ImmoBPutIntoHistorique(uint _id, uint _index) public onlyOwnerOf(_id) {\r\n        Immobien storage immo =  immobStored.immobs[_index];\r\n        immo.archiver = true;\r\n        immobStored.immobs[_index] = immo;\r\n    }\r\n\r\n}",
  "sourcePath": "C:/Users/uriel/5al1/blockchain/blockchain-marketplace/blockchain-contract/contracts/BienImmoContract.sol",
  "compiler": {
    "name": "solc",
    "version": "0.5.16+commit.9c3226ce.Emscripten.clang"
  },
  "schemaVersion": "3.3.2",
  "updatedAt": "2021-01-25T15:00:07.818Z",
  "devdoc": {
    "methods": {}
  },
  "userdoc": {
    "methods": {}
  }
}