{
  "contractName": "BienImmoContract",
  "abi": [
    {
      "inputs": [],
      "payable": false,
      "stateMutability": "nonpayable",
      "type": "constructor"
    },
    {
      "anonymous": false,
      "inputs": [
        {
          "indexed": false,
          "internalType": "uint256",
          "name": "_id",
          "type": "uint256"
        },
        {
          "indexed": false,
          "internalType": "string",
          "name": "_user",
          "type": "string"
        },
        {
          "indexed": false,
          "internalType": "string",
          "name": "_nom",
          "type": "string"
        },
        {
          "indexed": false,
          "internalType": "uint256",
          "name": "_prix",
          "type": "uint256"
        },
        {
          "indexed": false,
          "internalType": "string",
          "name": "_adress",
          "type": "string"
        }
      ],
      "name": "ImmoBaddEvent",
      "type": "event"
    },
    {
      "constant": false,
      "inputs": [
        {
          "internalType": "string",
          "name": "name",
          "type": "string"
        }
      ],
      "name": "addUsername",
      "outputs": [],
      "payable": false,
      "stateMutability": "nonpayable",
      "type": "function"
    },
    {
      "constant": true,
      "inputs": [],
      "name": "usercheck",
      "outputs": [
        {
          "internalType": "bool",
          "name": "",
          "type": "bool"
        }
      ],
      "payable": false,
      "stateMutability": "view",
      "type": "function"
    },
    {
      "constant": false,
      "inputs": [
        {
          "internalType": "string",
          "name": "_nom",
          "type": "string"
        },
        {
          "internalType": "uint256",
          "name": "_prix",
          "type": "uint256"
        },
        {
          "internalType": "string",
          "name": "_immo_address",
          "type": "string"
        },
        {
          "internalType": "string",
          "name": "_detail",
          "type": "string"
        }
      ],
      "name": "addBienImmo",
      "outputs": [],
      "payable": false,
      "stateMutability": "nonpayable",
      "type": "function"
    },
    {
      "constant": true,
      "inputs": [],
      "name": "ImmoBListread",
      "outputs": [
        {
          "components": [
            {
              "internalType": "uint256",
              "name": "id",
              "type": "uint256"
            },
            {
              "internalType": "string",
              "name": "nom",
              "type": "string"
            },
            {
              "internalType": "uint256",
              "name": "prix",
              "type": "uint256"
            },
            {
              "internalType": "string",
              "name": "adress",
              "type": "string"
            },
            {
              "internalType": "string",
              "name": "detail",
              "type": "string"
            },
            {
              "internalType": "string",
              "name": "vendeur",
              "type": "string"
            },
            {
              "internalType": "string",
              "name": "achat_status",
              "type": "string"
            },
            {
              "internalType": "string",
              "name": "acheteur",
              "type": "string"
            },
            {
              "internalType": "bool",
              "name": "archiver",
              "type": "bool"
            },
            {
              "internalType": "string",
              "name": "image1",
              "type": "string"
            },
            {
              "internalType": "string",
              "name": "image2",
              "type": "string"
            },
            {
              "internalType": "string",
              "name": "image3",
              "type": "string"
            },
            {
              "internalType": "string",
              "name": "image4",
              "type": "string"
            },
            {
              "internalType": "string",
              "name": "image5",
              "type": "string"
            }
          ],
          "internalType": "struct BienImmoContract.Immobien[]",
          "name": "",
          "type": "tuple[]"
        }
      ],
      "payable": false,
      "stateMutability": "view",
      "type": "function"
    },
    {
      "constant": false,
      "inputs": [
        {
          "internalType": "uint256",
          "name": "_id",
          "type": "uint256"
        },
        {
          "internalType": "string",
          "name": "_new_name",
          "type": "string"
        }
      ],
      "name": "ImmoBChangeNom",
      "outputs": [],
      "payable": false,
      "stateMutability": "nonpayable",
      "type": "function"
    },
    {
      "constant": false,
      "inputs": [
        {
          "internalType": "uint256",
          "name": "_id",
          "type": "uint256"
        },
        {
          "internalType": "string",
          "name": "_new_detail",
          "type": "string"
        }
      ],
      "name": "ImmoBChangeDetail",
      "outputs": [],
      "payable": false,
      "stateMutability": "nonpayable",
      "type": "function"
    },
    {
      "constant": false,
      "inputs": [
        {
          "internalType": "uint256",
          "name": "_id",
          "type": "uint256"
        },
        {
          "internalType": "uint256",
          "name": "_new_prix",
          "type": "uint256"
        }
      ],
      "name": "ImmoBChangePrix",
      "outputs": [],
      "payable": false,
      "stateMutability": "nonpayable",
      "type": "function"
    },
    {
      "constant": false,
      "inputs": [
        {
          "internalType": "uint256",
          "name": "_id",
          "type": "uint256"
        },
        {
          "internalType": "string",
          "name": "_new_adress",
          "type": "string"
        }
      ],
      "name": "ImmoBChangeAdress",
      "outputs": [],
      "payable": false,
      "stateMutability": "nonpayable",
      "type": "function"
    },
    {
      "constant": false,
      "inputs": [
        {
          "internalType": "uint256",
          "name": "_id",
          "type": "uint256"
        },
        {
          "internalType": "uint256",
          "name": "_imageNb",
          "type": "uint256"
        },
        {
          "internalType": "string",
          "name": "_new_image",
          "type": "string"
        }
      ],
      "name": "ImmoBChangeImage",
      "outputs": [],
      "payable": false,
      "stateMutability": "nonpayable",
      "type": "function"
    },
    {
      "constant": false,
      "inputs": [
        {
          "internalType": "uint256",
          "name": "_id",
          "type": "uint256"
        }
      ],
      "name": "ImmoBDelete",
      "outputs": [],
      "payable": false,
      "stateMutability": "nonpayable",
      "type": "function"
    },
    {
      "constant": false,
      "inputs": [
        {
          "internalType": "uint256",
          "name": "_id",
          "type": "uint256"
        }
      ],
      "name": "ImmoBSetIndispo",
      "outputs": [],
      "payable": false,
      "stateMutability": "nonpayable",
      "type": "function"
    },
    {
      "constant": false,
      "inputs": [
        {
          "internalType": "uint256",
          "name": "_id",
          "type": "uint256"
        }
      ],
      "name": "ImmoBSetDispo",
      "outputs": [],
      "payable": false,
      "stateMutability": "nonpayable",
      "type": "function"
    },
    {
      "constant": false,
      "inputs": [
        {
          "internalType": "uint256",
          "name": "_id",
          "type": "uint256"
        },
        {
          "internalType": "string",
          "name": "_acheteur",
          "type": "string"
        }
      ],
      "name": "ImmoBSetEnCours",
      "outputs": [],
      "payable": false,
      "stateMutability": "nonpayable",
      "type": "function"
    },
    {
      "constant": false,
      "inputs": [
        {
          "internalType": "uint256",
          "name": "_id",
          "type": "uint256"
        }
      ],
      "name": "ImmoBSetAcheter",
      "outputs": [],
      "payable": false,
      "stateMutability": "nonpayable",
      "type": "function"
    },
    {
      "constant": false,
      "inputs": [
        {
          "internalType": "uint256",
          "name": "_id",
          "type": "uint256"
        }
      ],
      "name": "ImmoBPutIntoHistorique",
      "outputs": [],
      "payable": false,
      "stateMutability": "nonpayable",
      "type": "function"
    }
  ],
  "bytecode": "0x6080604052336000806101000a81548173ffffffffffffffffffffffffffffffffffffffff021916908373ffffffffffffffffffffffffffffffffffffffff1602179055506040518060400160405280600c81526020017f496e646973706f6e69626c6500000000000000000000000000000000000000008152506008908051906020019062000091929190620001bb565b506040518060400160405280600a81526020017f446973706f6e69626c650000000000000000000000000000000000000000000081525060099080519060200190620000df929190620001bb565b506040518060400160405280600781526020017f456e636f75727300000000000000000000000000000000000000000000000000815250600a90805190602001906200012d929190620001bb565b506040518060400160405280600781526020017f4163686574657200000000000000000000000000000000000000000000000000815250600b90805190602001906200017b929190620001bb565b503480156200018957600080fd5b5060006002819055506000600360006101000a81548160ff02191690831515021790555060006005819055506200026a565b828054600181600116156101000203166002900490600052602060002090601f016020900481019282601f10620001fe57805160ff19168380011785556200022f565b828001600101855582156200022f579182015b828111156200022e57825182559160200191906001019062000211565b5b5090506200023e919062000242565b5090565b6200026791905b808211156200026357600081600090555060010162000249565b5090565b90565b613100806200027a6000396000f3fe608060405234801561001057600080fd5b50600436106100f55760003560e01c80638e2d553c11610097578063e6d9630a11610066578063e6d9630a14610232578063eff62fe51461024e578063f2b658d21461026a578063fe81f86414610286576100f5565b80638e2d553c146101c0578063b24e8986146101dc578063cae8f2cd146101f8578063d468632d14610214576100f5565b806364bf7fe9116100d357806364bf7fe914610150578063755c1fd81461016c578063769a3f0f146101885780637ce67990146101a4576100f5565b8063121d866e146100fa578063168272ab14610116578063499f8b1c14610134575b600080fd5b610114600480360361010f919081019061287b565b6102a2565b005b61011e610374565b60405161012b9190612e03565b60405180910390f35b61014e600480360361014991908101906128a4565b610b88565b005b61016a6004803603610165919081019061287b565b610cfd565b005b6101866004803603610181919081019061278f565b610edd565b005b6101a2600480360361019d919081019061287b565b611050565b005b6101be60048036036101b99190810190612934565b6111c9565b005b6101da60048036036101d591908101906128f8565b61138e565b005b6101f660048036036101f1919081019061287b565b61146f565b005b610212600480360361020d919081019061287b565b6118a8565b005b61021c61197a565b6040516102299190612e25565b60405180910390f35b61024c600480360361024791908101906128a4565b611b41565b005b610268600480360361026391908101906127d0565b611cb6565b005b610284600480360361027f91908101906128a4565b6121f2565b005b6102a0600480360361029b91908101906128a4565b612367565b005b6000809054906101000a900473ffffffffffffffffffffffffffffffffffffffff1673ffffffffffffffffffffffffffffffffffffffff163373ffffffffffffffffffffffffffffffffffffffff1614610331576040517f08c379a000000000000000000000000000000000000000000000000000000000815260040161032890612eae565b60405180910390fd5b60086006828154811061034057fe5b90600052602060002090600e0201600601908054600181600116156101000203166002900461037092919061246d565b5050565b60606000809054906101000a900473ffffffffffffffffffffffffffffffffffffffff1673ffffffffffffffffffffffffffffffffffffffff163373ffffffffffffffffffffffffffffffffffffffff1614610405576040517f08c379a00000000000000000000000000000000000000000000000000000000081526004016103fc90612eae565b60405180910390fd5b6006805480602002602001604051908101604052809291908181526020016000905b82821015610b7f57838290600052602060002090600e0201604051806101c001604052908160008201548152602001600182018054600181600116156101000203166002900480601f0160208091040260200160405190810160405280929190818152602001828054600181600116156101000203166002900480156104ee5780601f106104c3576101008083540402835291602001916104ee565b820191906000526020600020905b8154815290600101906020018083116104d157829003601f168201915b5050505050815260200160028201548152602001600382018054600181600116156101000203166002900480601f01602080910402602001604051908101604052809291908181526020018280546001816001161561010002031660029004801561059a5780601f1061056f5761010080835404028352916020019161059a565b820191906000526020600020905b81548152906001019060200180831161057d57829003601f168201915b50505050508152602001600482018054600181600116156101000203166002900480601f01602080910402602001604051908101604052809291908181526020018280546001816001161561010002031660029004801561063c5780601f106106115761010080835404028352916020019161063c565b820191906000526020600020905b81548152906001019060200180831161061f57829003601f168201915b50505050508152602001600582018054600181600116156101000203166002900480601f0160208091040260200160405190810160405280929190818152602001828054600181600116156101000203166002900480156106de5780601f106106b3576101008083540402835291602001916106de565b820191906000526020600020905b8154815290600101906020018083116106c157829003601f168201915b50505050508152602001600682018054600181600116156101000203166002900480601f0160208091040260200160405190810160405280929190818152602001828054600181600116156101000203166002900480156107805780601f1061075557610100808354040283529160200191610780565b820191906000526020600020905b81548152906001019060200180831161076357829003601f168201915b50505050508152602001600782018054600181600116156101000203166002900480601f0160208091040260200160405190810160405280929190818152602001828054600181600116156101000203166002900480156108225780601f106107f757610100808354040283529160200191610822565b820191906000526020600020905b81548152906001019060200180831161080557829003601f168201915b505050505081526020016008820160009054906101000a900460ff16151515158152602001600982018054600181600116156101000203166002900480601f0160208091040260200160405190810160405280929190818152602001828054600181600116156101000203166002900480156108df5780601f106108b4576101008083540402835291602001916108df565b820191906000526020600020905b8154815290600101906020018083116108c257829003601f168201915b50505050508152602001600a82018054600181600116156101000203166002900480601f0160208091040260200160405190810160405280929190818152602001828054600181600116156101000203166002900480156109815780601f1061095657610100808354040283529160200191610981565b820191906000526020600020905b81548152906001019060200180831161096457829003601f168201915b50505050508152602001600b82018054600181600116156101000203166002900480601f016020809104026020016040519081016040528092919081815260200182805460018160011615610100020316600290048015610a235780601f106109f857610100808354040283529160200191610a23565b820191906000526020600020905b815481529060010190602001808311610a0657829003601f168201915b50505050508152602001600c82018054600181600116156101000203166002900480601f016020809104026020016040519081016040528092919081815260200182805460018160011615610100020316600290048015610ac55780601f10610a9a57610100808354040283529160200191610ac5565b820191906000526020600020905b815481529060010190602001808311610aa857829003601f168201915b50505050508152602001600d82018054600181600116156101000203166002900480601f016020809104026020016040519081016040528092919081815260200182805460018160011615610100020316600290048015610b675780601f10610b3c57610100808354040283529160200191610b67565b820191906000526020600020905b815481529060010190602001808311610b4a57829003601f168201915b50505050508152505081526020019060010190610427565b50505050905090565b6000809054906101000a900473ffffffffffffffffffffffffffffffffffffffff1673ffffffffffffffffffffffffffffffffffffffff163373ffffffffffffffffffffffffffffffffffffffff1614610c17576040517f08c379a0000000000000000000000000000000000000000000000000000000008152600401610c0e90612eae565b60405180910390fd5b73__Utils_________________________________6388d8da5f60068481548110610c3e57fe5b90600052602060002090600e0201600101836040518363ffffffff1660e01b8152600401610c6d929190612e40565b60206040518083038186803b158015610c8557600080fd5b505af4158015610c99573d6000803e3d6000fd5b505050506040513d601f19601f82011682018060405250610cbd9190810190612766565b610cc657600080fd5b8060068381548110610cd457fe5b90600052602060002090600e02016001019080519060200190610cf89291906124f4565b505050565b6000809054906101000a900473ffffffffffffffffffffffffffffffffffffffff1673ffffffffffffffffffffffffffffffffffffffff163373ffffffffffffffffffffffffffffffffffffffff1614610d8c576040517f08c379a0000000000000000000000000000000000000000000000000000000008152600401610d8390612eae565b60405180910390fd5b73__Utils_________________________________6388d8da5f600460008060009054906101000a900473ffffffffffffffffffffffffffffffffffffffff1673ffffffffffffffffffffffffffffffffffffffff1673ffffffffffffffffffffffffffffffffffffffff16815260200190815260200160002060068481548110610e1357fe5b90600052602060002090600e02016007016040518363ffffffff1660e01b8152600401610e41929190612e77565b60206040518083038186803b158015610e5957600080fd5b505af4158015610e6d573d6000803e3d6000fd5b505050506040513d601f19601f82011682018060405250610e919190810190612766565b610e9a57600080fd5b600b60068281548110610ea957fe5b90600052602060002090600e02016006019080546001816001161561010002031660029004610ed992919061246d565b5050565b6000809054906101000a900473ffffffffffffffffffffffffffffffffffffffff1673ffffffffffffffffffffffffffffffffffffffff163373ffffffffffffffffffffffffffffffffffffffff1614610f6c576040517f08c379a0000000000000000000000000000000000000000000000000000000008152600401610f6390612eae565b60405180910390fd5b80600460008060009054906101000a900473ffffffffffffffffffffffffffffffffffffffff1673ffffffffffffffffffffffffffffffffffffffff1673ffffffffffffffffffffffffffffffffffffffff1681526020019081526020016000209080519060200190610fe09291906124f4565b50600181908060018154018082558091505090600182039060005260206000200160009091929091909150908051906020019061101e9291906124f4565b50506002600081548092919060010191905055506001600360006101000a81548160ff02191690831515021790555050565b6000809054906101000a900473ffffffffffffffffffffffffffffffffffffffff1673ffffffffffffffffffffffffffffffffffffffff163373ffffffffffffffffffffffffffffffffffffffff16146110df576040517f08c379a00000000000000000000000000000000000000000000000000000000081526004016110d690612eae565b60405180910390fd5b73__Utils_________________________________6388d8da5f6006838154811061110657fe5b90600052602060002090600e0201600601600b6040518363ffffffff1660e01b8152600401611136929190612e77565b60206040518083038186803b15801561114e57600080fd5b505af4158015611162573d6000803e3d6000fd5b505050506040513d601f19601f820116820180604052506111869190810190612766565b61118f57600080fd5b60016006828154811061119e57fe5b90600052602060002090600e020160080160006101000a81548160ff02191690831515021790555050565b6000809054906101000a900473ffffffffffffffffffffffffffffffffffffffff1673ffffffffffffffffffffffffffffffffffffffff163373ffffffffffffffffffffffffffffffffffffffff1614611258576040517f08c379a000000000000000000000000000000000000000000000000000000000815260040161124f90612eae565b60405180910390fd5b600182141561129557806006848154811061126f57fe5b90600052602060002090600e020160090190805190602001906112939291906124f4565b505b60028214156112d25780600684815481106112ac57fe5b90600052602060002090600e0201600a0190805190602001906112d09291906124f4565b505b600382141561130f5780600684815481106112e957fe5b90600052602060002090600e0201600b01908051906020019061130d9291906124f4565b505b600482141561134c57806006848154811061132657fe5b90600052602060002090600e0201600c01908051906020019061134a9291906124f4565b505b600582141561138957806006848154811061136357fe5b90600052602060002090600e0201600d0190805190602001906113879291906124f4565b505b505050565b6000809054906101000a900473ffffffffffffffffffffffffffffffffffffffff1673ffffffffffffffffffffffffffffffffffffffff163373ffffffffffffffffffffffffffffffffffffffff161461141d576040517f08c379a000000000000000000000000000000000000000000000000000000000815260040161141490612eae565b60405180910390fd5b806006838154811061142b57fe5b90600052602060002090600e020160020154141561144857600080fd5b806006838154811061145657fe5b90600052602060002090600e0201600201819055505050565b6000809054906101000a900473ffffffffffffffffffffffffffffffffffffffff1673ffffffffffffffffffffffffffffffffffffffff163373ffffffffffffffffffffffffffffffffffffffff16146114fe576040517f08c379a00000000000000000000000000000000000000000000000000000000081526004016114f590612eae565b60405180910390fd5b60068054905081101561151057600080fd5b60008190505b600160068054905003811015611797576006600182018154811061153657fe5b90600052602060002090600e02016006828154811061155157fe5b90600052602060002090600e02016000820154816000015560018201816001019080546001816001161561010002031660029004611590929190612574565b5060028201548160020155600382018160030190805460018160011615610100020316600290046115c2929190612574565b50600482018160040190805460018160011615610100020316600290046115ea929190612574565b5060058201816005019080546001816001161561010002031660029004611612929190612574565b506006820181600601908054600181600116156101000203166002900461163a929190612574565b5060078201816007019080546001816001161561010002031660029004611662929190612574565b506008820160009054906101000a900460ff168160080160006101000a81548160ff021916908315150217905550600982018160090190805460018160011615610100020316600290046116b7929190612574565b50600a820181600a0190805460018160011615610100020316600290046116df929190612574565b50600b820181600b019080546001816001161561010002031660029004611707929190612574565b50600c820181600c01908054600181600116156101000203166002900461172f929190612574565b50600d820181600d019080546001816001161561010002031660029004611757929190612574565b509050506006818154811061176857fe5b90600052602060002090600e020160000160008154809291906001900391905055508080600101915050611516565b506006600160068054905003815481106117ad57fe5b90600052602060002090600e02016000808201600090556001820160006117d491906125fb565b60028201600090556003820160006117ec91906125fb565b6004820160006117fc91906125fb565b60058201600061180c91906125fb565b60068201600061181c91906125fb565b60078201600061182c91906125fb565b6008820160006101000a81549060ff021916905560098201600061185091906125fb565b600a8201600061186091906125fb565b600b8201600061187091906125fb565b600c8201600061188091906125fb565b600d8201600061189091906125fb565b50506005600081548092919060019003919050555050565b6000809054906101000a900473ffffffffffffffffffffffffffffffffffffffff1673ffffffffffffffffffffffffffffffffffffffff163373ffffffffffffffffffffffffffffffffffffffff1614611937576040517f08c379a000000000000000000000000000000000000000000000000000000000815260040161192e90612eae565b60405180910390fd5b60096006828154811061194657fe5b90600052602060002090600e0201600601908054600181600116156101000203166002900461197692919061246d565b5050565b60008060009054906101000a900473ffffffffffffffffffffffffffffffffffffffff1673ffffffffffffffffffffffffffffffffffffffff163373ffffffffffffffffffffffffffffffffffffffff1614611a0b576040517f08c379a0000000000000000000000000000000000000000000000000000000008152600401611a0290612eae565b60405180910390fd5b60008090505b600180549050811015611b385773__Utils_________________________________6388d8da5f600460008060009054906101000a900473ffffffffffffffffffffffffffffffffffffffff1673ffffffffffffffffffffffffffffffffffffffff1673ffffffffffffffffffffffffffffffffffffffff16815260200190815260200160002060018481548110611aa557fe5b906000526020600020016040518363ffffffff1660e01b8152600401611acc929190612e77565b60206040518083038186803b158015611ae457600080fd5b505af4158015611af8573d6000803e3d6000fd5b505050506040513d601f19601f82011682018060405250611b1c9190810190612766565b15611b2b576001915050611b3e565b8080600101915050611a11565b50600090505b90565b6000809054906101000a900473ffffffffffffffffffffffffffffffffffffffff1673ffffffffffffffffffffffffffffffffffffffff163373ffffffffffffffffffffffffffffffffffffffff1614611bd0576040517f08c379a0000000000000000000000000000000000000000000000000000000008152600401611bc790612eae565b60405180910390fd5b73__Utils_________________________________6388d8da5f60068481548110611bf757fe5b90600052602060002090600e0201600401836040518363ffffffff1660e01b8152600401611c26929190612e40565b60206040518083038186803b158015611c3e57600080fd5b505af4158015611c52573d6000803e3d6000fd5b505050506040513d601f19601f82011682018060405250611c769190810190612766565b611c7f57600080fd5b8060068381548110611c8d57fe5b90600052602060002090600e02016004019080519060200190611cb19291906124f4565b505050565b6000809054906101000a900473ffffffffffffffffffffffffffffffffffffffff1673ffffffffffffffffffffffffffffffffffffffff163373ffffffffffffffffffffffffffffffffffffffff1614611d45576040517f08c379a0000000000000000000000000000000000000000000000000000000008152600401611d3c90612eae565b60405180910390fd5b6006604051806101c001604052806005548152602001868152602001858152602001848152602001838152602001600460008060009054906101000a900473ffffffffffffffffffffffffffffffffffffffff1673ffffffffffffffffffffffffffffffffffffffff1673ffffffffffffffffffffffffffffffffffffffff1681526020019081526020016000208054600181600116156101000203166002900480601f016020809104026020016040519081016040528092919081815260200182805460018160011615610100020316600290048015611e675780601f10611e3c57610100808354040283529160200191611e67565b820191906000526020600020905b815481529060010190602001808311611e4a57829003601f168201915b5050505050815260200160098054600181600116156101000203166002900480601f016020809104026020016040519081016040528092919081815260200182805460018160011615610100020316600290048015611f075780601f10611edc57610100808354040283529160200191611f07565b820191906000526020600020905b815481529060010190602001808311611eea57829003601f168201915b50505050508152602001604051806020016040528060008152508152602001600015158152602001604051806020016040528060008152508152602001604051806020016040528060008152508152602001604051806020016040528060008152508152602001604051806020016040528060008152508152602001604051806020016040528060008152508152509080600181540180825580915050906001820390600052602060002090600e020160009091929091909150600082015181600001556020820151816001019080519060200190611fe7929190612643565b5060408201518160020155606082015181600301908051906020019061200e929190612643565b50608082015181600401908051906020019061202b929190612643565b5060a0820151816005019080519060200190612048929190612643565b5060c0820151816006019080519060200190612065929190612643565b5060e0820151816007019080519060200190612082929190612643565b506101008201518160080160006101000a81548160ff0219169083151502179055506101208201518160090190805190602001906120c1929190612643565b5061014082015181600a0190805190602001906120df929190612643565b5061016082015181600b0190805190602001906120fd929190612643565b5061018082015181600c01908051906020019061211b929190612643565b506101a082015181600d019080519060200190612139929190612643565b505050506001600554016005819055507f5dc53bc0925c252040faef4dc685e13114a728826ec9e7a5d55a16c2add5f6f1600160055403600460008060009054906101000a900473ffffffffffffffffffffffffffffffffffffffff1673ffffffffffffffffffffffffffffffffffffffff1673ffffffffffffffffffffffffffffffffffffffff1681526020019081526020016000208686866040516121e4959493929190612ece565b60405180910390a150505050565b6000809054906101000a900473ffffffffffffffffffffffffffffffffffffffff1673ffffffffffffffffffffffffffffffffffffffff163373ffffffffffffffffffffffffffffffffffffffff1614612281576040517f08c379a000000000000000000000000000000000000000000000000000000000815260040161227890612eae565b60405180910390fd5b73__Utils_________________________________6388d8da5f600684815481106122a857fe5b90600052602060002090600e0201600301836040518363ffffffff1660e01b81526004016122d7929190612e40565b60206040518083038186803b1580156122ef57600080fd5b505af4158015612303573d6000803e3d6000fd5b505050506040513d601f19601f820116820180604052506123279190810190612766565b61233057600080fd5b806006838154811061233e57fe5b90600052602060002090600e020160030190805190602001906123629291906124f4565b505050565b6000809054906101000a900473ffffffffffffffffffffffffffffffffffffffff1673ffffffffffffffffffffffffffffffffffffffff163373ffffffffffffffffffffffffffffffffffffffff16146123f6576040517f08c379a00000000000000000000000000000000000000000000000000000000081526004016123ed90612eae565b60405180910390fd5b600a6006838154811061240557fe5b90600052602060002090600e0201600601908054600181600116156101000203166002900461243592919061246d565b50806006838154811061244457fe5b90600052602060002090600e020160070190805190602001906124689291906124f4565b505050565b828054600181600116156101000203166002900490600052602060002090601f016020900481019282601f106124a657805485556124e3565b828001600101855582156124e357600052602060002091601f016020900482015b828111156124e25782548255916001019190600101906124c7565b5b5090506124f091906126c3565b5090565b828054600181600116156101000203166002900490600052602060002090601f016020900481019282601f1061253557805160ff1916838001178555612563565b82800160010185558215612563579182015b82811115612562578251825591602001919060010190612547565b5b50905061257091906126c3565b5090565b828054600181600116156101000203166002900490600052602060002090601f016020900481019282601f106125ad57805485556125ea565b828001600101855582156125ea57600052602060002091601f016020900482015b828111156125e95782548255916001019190600101906125ce565b5b5090506125f791906126c3565b5090565b50805460018160011615610100020316600290046000825580601f106126215750612640565b601f01602090049060005260206000209081019061263f91906126c3565b5b50565b828054600181600116156101000203166002900490600052602060002090601f016020900481019282601f1061268457805160ff19168380011785556126b2565b828001600101855582156126b2579182015b828111156126b1578251825591602001919060010190612696565b5b5090506126bf91906126c3565b5090565b6126e591905b808211156126e15760008160009055506001016126c9565b5090565b90565b6000815190506126f78161308f565b92915050565b600082601f83011261270e57600080fd5b813561272161271c82612f63565b612f36565b9150808252602083016020830185838301111561273d57600080fd5b61274883828461303c565b50505092915050565b600081359050612760816130a6565b92915050565b60006020828403121561277857600080fd5b6000612786848285016126e8565b91505092915050565b6000602082840312156127a157600080fd5b600082013567ffffffffffffffff8111156127bb57600080fd5b6127c7848285016126fd565b91505092915050565b600080600080608085870312156127e657600080fd5b600085013567ffffffffffffffff81111561280057600080fd5b61280c878288016126fd565b945050602061281d87828801612751565b935050604085013567ffffffffffffffff81111561283a57600080fd5b612846878288016126fd565b925050606085013567ffffffffffffffff81111561286357600080fd5b61286f878288016126fd565b91505092959194509250565b60006020828403121561288d57600080fd5b600061289b84828501612751565b91505092915050565b600080604083850312156128b757600080fd5b60006128c585828601612751565b925050602083013567ffffffffffffffff8111156128e257600080fd5b6128ee858286016126fd565b9150509250929050565b6000806040838503121561290b57600080fd5b600061291985828601612751565b925050602061292a85828601612751565b9150509250929050565b60008060006060848603121561294957600080fd5b600061295786828701612751565b935050602061296886828701612751565b925050604084013567ffffffffffffffff81111561298557600080fd5b612991868287016126fd565b9150509250925092565b60006129a78383612c71565b905092915050565b60006129ba82612fb4565b6129c48185612fe2565b9350836020820285016129d685612f8f565b8060005b85811015612a1257848403895281516129f3858261299b565b94506129fe83612fd5565b925060208a019950506001810190506129da565b50829750879550505050505092915050565b612a2d81613026565b82525050565b612a3c81613026565b82525050565b6000612a4d82612fca565b612a578185613004565b9350612a6781856020860161304b565b612a708161307e565b840191505092915050565b6000612a8682612fca565b612a908185613015565b9350612aa081856020860161304b565b612aa98161307e565b840191505092915050565b6000612abf82612fbf565b612ac98185612ff3565b9350612ad981856020860161304b565b612ae28161307e565b840191505092915050565b600081546001811660008114612b0a5760018114612b3057612b74565b607f6002830416612b1b8187613004565b955060ff198316865260208601935050612b74565b60028204612b3e8187613004565b9550612b4985612f9f565b60005b82811015612b6b57815481890152600182019150602081019050612b4c565b80880195505050505b505092915050565b600081546001811660008114612b995760018114612bbf57612c03565b607f6002830416612baa8187613015565b955060ff198316865260208601935050612c03565b60028204612bcd8187613015565b9550612bd885612f9f565b60005b82811015612bfa57815481890152600182019150602081019050612bdb565b80880195505050505b505092915050565b6000612c18603383613004565b91507f546869732066756e6374696f6e206973207265737472696374656420746f207460008301527f686520636f6e74726163742773206f776e6572000000000000000000000000006020830152604082019050919050565b60006101c083016000830151612c8a6000860182612de5565b5060208301518482036020860152612ca28282612ab4565b9150506040830151612cb76040860182612de5565b5060608301518482036060860152612ccf8282612ab4565b91505060808301518482036080860152612ce98282612ab4565b91505060a083015184820360a0860152612d038282612ab4565b91505060c083015184820360c0860152612d1d8282612ab4565b91505060e083015184820360e0860152612d378282612ab4565b915050610100830151612d4e610100860182612a24565b50610120830151848203610120860152612d688282612ab4565b915050610140830151848203610140860152612d848282612ab4565b915050610160830151848203610160860152612da08282612ab4565b915050610180830151848203610180860152612dbc8282612ab4565b9150506101a08301518482036101a0860152612dd88282612ab4565b9150508091505092915050565b612dee81613032565b82525050565b612dfd81613032565b82525050565b60006020820190508181036000830152612e1d81846129af565b905092915050565b6000602082019050612e3a6000830184612a33565b92915050565b60006040820190508181036000830152612e5a8185612b7c565b90508181036020830152612e6e8184612a7b565b90509392505050565b60006040820190508181036000830152612e918185612b7c565b90508181036020830152612ea58184612b7c565b90509392505050565b60006020820190508181036000830152612ec781612c0b565b9050919050565b600060a082019050612ee36000830188612df4565b8181036020830152612ef58187612aed565b90508181036040830152612f098186612a42565b9050612f186060830185612df4565b8181036080830152612f2a8184612a42565b90509695505050505050565b6000604051905081810181811067ffffffffffffffff82111715612f5957600080fd5b8060405250919050565b600067ffffffffffffffff821115612f7a57600080fd5b601f19601f8301169050602081019050919050565b6000819050602082019050919050565b60008190508160005260206000209050919050565b600081519050919050565b600081519050919050565b600081519050919050565b6000602082019050919050565b600082825260208201905092915050565b600082825260208201905092915050565b600082825260208201905092915050565b600082825260208201905092915050565b60008115159050919050565b6000819050919050565b82818337600083830152505050565b60005b8381101561306957808201518184015260208101905061304e565b83811115613078576000848401525b50505050565b6000601f19601f8301169050919050565b61309881613026565b81146130a357600080fd5b50565b6130af81613032565b81146130ba57600080fd5b5056fea365627a7a72315820c70de74c8e21ce9a78b8fd300587cb91d3a14800b5036d96ea33109ddb0c74116c6578706572696d656e74616cf564736f6c63430005100040",
  "source": "pragma solidity >=0.4.0 <=0.8.0;\r\npragma experimental ABIEncoderV2;\r\nimport './UsersContract.sol';\r\nimport './outside/token.sol';\r\nimport './outside/utils.sol';\r\ncontract BienImmoContract is UsersContract {\r\n\r\n    struct Immobien {\r\n        uint id;\r\n        string nom;\r\n        uint prix;\r\n        string adress;\r\n        string detail;\r\n        string vendeur;\r\n        string achat_status;\r\n        string acheteur;\r\n        bool archiver;\r\n        string image1;\r\n        string image2;\r\n        string image3;\r\n        string image4;\r\n        string image5;\r\n    }\r\n    \r\n    uint nbImmobiens;\r\n    Immobien[] private bienImmobiliers;\r\n    mapping(address => uint) userImmobiens;\r\n\r\n    // dataTemporaire: Mock des biens immo\r\n\r\n    constructor() UsersContract() public {\r\n        nbImmobiens = 0;\r\n    }\r\n\r\n    //interne\r\n    string private STATUS_INDISPO = 'Indisponible';\r\n    string private STATUS_DISPO = 'Disponible';\r\n    string private STATUS_ENCOURS = 'Encours';\r\n    string private STATUS_ACHETER = 'Acheter';\r\n    \r\n    // Accesseur:  ajout\r\n    event ImmoBaddEvent(uint _id, string _user, string _nom, uint _prix, string _adress);\r\n    function addBienImmo(string memory _nom, uint _prix, string memory _immo_address, \r\n    string memory _detail) public restricted {\r\n        bienImmobiliers.push(Immobien(nbImmobiens, _nom, _prix, _immo_address, _detail,\r\n         usersMap[owner], STATUS_DISPO, '', false, '','','','',''));    \r\n        nbImmobiens = nbImmobiens + 1;\r\n\r\n        emit ImmoBaddEvent(nbImmobiens - 1, usersMap[owner], _nom, _prix, _immo_address);\r\n    }\r\n    // Accesseur: lecture\r\n    function ImmoBListread()  public view restricted returns (Immobien[] memory) {\r\n        return bienImmobiliers;\r\n    }\r\n    // Accesseur: lecture des bien appartenant au proprietaire\r\n    // function ImmoBListread(string memory _vendeur)  public view restricted returns (Immobien[] memory) {\r\n    //     Immobien[] storage listReduitparVendeur;\r\n    //      for (uint i = 0; i < bienImmobiliers.length-1; i++) {\r\n    //          if( Utils.equals(bienImmobiliers[i].vendeur, _vendeur)) {\r\n    //              listReduitparVendeur.push(bienImmobiliers[i]);\r\n    //          }\r\n    //      }\r\n\r\n    //     return listReduitparVendeur;\r\n    // }\r\n\r\n    // modificateur\r\n    // modificateur: modeifier le champs d'un bien\r\n    function ImmoBChangeNom(uint _id, string memory _new_name) public restricted {\r\n        require(Utils.equals(bienImmobiliers[_id].nom, _new_name));\r\n        bienImmobiliers[_id].nom = _new_name;\r\n    }\r\n    function ImmoBChangeDetail(uint _id, string memory _new_detail) public restricted {\r\n        require(Utils.equals(bienImmobiliers[_id].detail, _new_detail));\r\n        bienImmobiliers[_id].detail = _new_detail;\r\n    }\r\n    function ImmoBChangePrix(uint _id, uint _new_prix) public restricted {\r\n        require(bienImmobiliers[_id].prix != _new_prix);\r\n        bienImmobiliers[_id].prix = _new_prix;\r\n    }\r\n    function ImmoBChangeAdress(uint _id, string memory _new_adress) public restricted {\r\n        require(Utils.equals(bienImmobiliers[_id].adress, _new_adress));\r\n        bienImmobiliers[_id].adress = _new_adress;\r\n    }\r\n    function ImmoBChangeImage(uint _id, uint _imageNb, string memory _new_image) public restricted {\r\n        if(_imageNb == 1){\r\n            bienImmobiliers[_id].image1 = _new_image;\r\n        }\r\n        if(_imageNb == 2){\r\n            bienImmobiliers[_id].image2 = _new_image;\r\n        }\r\n        if(_imageNb == 3){\r\n            bienImmobiliers[_id].image3 = _new_image;\r\n        }\r\n        if(_imageNb == 4){\r\n            bienImmobiliers[_id].image4 = _new_image;\r\n        }\r\n        if(_imageNb == 5){\r\n            bienImmobiliers[_id].image5 = _new_image;\r\n        }\r\n    }\r\n    // modificateur: supression d'un bien\r\n    function ImmoBDelete(uint _id) public restricted {\r\n        require(_id >= bienImmobiliers.length);\r\n\r\n        for (uint i = _id; i < bienImmobiliers.length-1; i++){\r\n            bienImmobiliers[i] = bienImmobiliers[i+1];\r\n            bienImmobiliers[i].id--;\r\n        }\r\n        delete bienImmobiliers[bienImmobiliers.length-1];\r\n        //bienImmobiliers.length--;\r\n        nbImmobiens--;\r\n    }\r\n\r\n    // modificateur: desactivation et activation d'un bien\r\n    function ImmoBSetIndispo(uint _id) public restricted {\r\n        bienImmobiliers[_id].achat_status = STATUS_INDISPO;\r\n    }\r\n\r\n    function ImmoBSetDispo(uint _id) public restricted {\r\n        bienImmobiliers[_id].achat_status = STATUS_DISPO;\r\n    }\r\n\r\n    // modificateur: mettre dans panier\r\n    function ImmoBSetEnCours(uint _id, string memory _acheteur) public restricted {\r\n        bienImmobiliers[_id].achat_status = STATUS_ENCOURS;\r\n        bienImmobiliers[_id].acheteur = _acheteur;\r\n    }\r\n\r\n    // modificateur:enlever du panier\r\n      // => this.ImmoBSetDispo({id})\r\n\r\n    // modificateur: acheter et transaction d'achat\r\n    function ImmoBSetAcheter(uint _id) public restricted {\r\n        require(Utils.equals(usersMap[owner], bienImmobiliers[_id].acheteur));\r\n        // transaction d'achat\r\n        bienImmobiliers[_id].achat_status = STATUS_ACHETER;\r\n    }\r\n\r\n    // modificateur: archiver\r\n    function ImmoBPutIntoHistorique(uint _id) public restricted {\r\n        require(Utils.equals(bienImmobiliers[_id].achat_status, STATUS_ACHETER));\r\n        bienImmobiliers[_id].archiver = true;\r\n    }\r\n\r\n}",
  "sourcePath": "C:/Users/uriel/5al1/blockchain/blockchain-marketplace/blockchain-contract/contracts/BienImmoContract.sol",
  "compiler": {
    "name": "solc",
    "version": "0.5.16+commit.9c3226ce.Emscripten.clang"
  },
  "schemaVersion": "3.3.2",
  "updatedAt": "2021-01-06T13:04:09.148Z",
  "networkType": "ethereum",
  "devdoc": {
    "methods": {}
  },
  "userdoc": {
    "methods": {}
  }
}