{
  "contractName": "UsersContract",
  "abi": [
    {
      "inputs": [],
      "payable": false,
      "stateMutability": "nonpayable",
      "type": "constructor"
    },
    {
      "constant": true,
      "inputs": [],
      "name": "usercheck",
      "outputs": [
        {
          "internalType": "bool",
          "name": "",
          "type": "bool"
        }
      ],
      "payable": false,
      "stateMutability": "view",
      "type": "function"
    },
    {
      "constant": false,
      "inputs": [
        {
          "internalType": "string",
          "name": "name",
          "type": "string"
        }
      ],
      "name": "addUsername",
      "outputs": [],
      "payable": false,
      "stateMutability": "nonpayable",
      "type": "function"
    }
  ],
  "bytecode": "0x6080604052336000806101000a81548173ffffffffffffffffffffffffffffffffffffffff021916908373ffffffffffffffffffffffffffffffffffffffff16021790555034801561005057600080fd5b5060006002819055506000600360006101000a81548160ff021916908315150217905550610698806100836000396000f3fe608060405234801561001057600080fd5b50600436106100365760003560e01c8063755c1fd81461003b578063d468632d146100f6575b600080fd5b6100f46004803603602081101561005157600080fd5b810190808035906020019064010000000081111561006e57600080fd5b82018360208201111561008057600080fd5b803590602001918460018302840111640100000000831117156100a257600080fd5b91908080601f016020809104026020016040519081016040528093929190818152602001838380828437600081840152601f19601f820116905080830192505050505050509192919290505050610118565b005b6100fe6102a1565b604051808215151515815260200191505060405180910390f35b6000809054906101000a900473ffffffffffffffffffffffffffffffffffffffff1673ffffffffffffffffffffffffffffffffffffffff163373ffffffffffffffffffffffffffffffffffffffff16146101bd576040517f08c379a00000000000000000000000000000000000000000000000000000000081526004018080602001828103825260338152602001806106316033913960400191505060405180910390fd5b80600460008060009054906101000a900473ffffffffffffffffffffffffffffffffffffffff1673ffffffffffffffffffffffffffffffffffffffff1673ffffffffffffffffffffffffffffffffffffffff168152602001908152602001600020908051906020019061023192919061058b565b50600181908060018154018082558091505090600182039060005260206000200160009091929091909150908051906020019061026f92919061058b565b50506002600081548092919060010191905055506001600360006101000a81548160ff02191690831515021790555050565b60008060009054906101000a900473ffffffffffffffffffffffffffffffffffffffff1673ffffffffffffffffffffffffffffffffffffffff163373ffffffffffffffffffffffffffffffffffffffff1614610348576040517f08c379a00000000000000000000000000000000000000000000000000000000081526004018080602001828103825260338152602001806106316033913960400191505060405180910390fd5b60008090505b6001805490508110156105825773__Utils_________________________________6388d8da5f600460008060009054906101000a900473ffffffffffffffffffffffffffffffffffffffff1673ffffffffffffffffffffffffffffffffffffffff1673ffffffffffffffffffffffffffffffffffffffff168152602001908152602001600020600184815481106103e257fe5b906000526020600020016040518363ffffffff1660e01b81526004018080602001806020018381038352858181546001816001161561010002031660029004815260200191508054600181600116156101000203166002900480156104885780601f1061045d57610100808354040283529160200191610488565b820191906000526020600020905b81548152906001019060200180831161046b57829003601f168201915b505083810382528481815460018160011615610100020316600290048152602001915080546001816001161561010002031660029004801561050b5780601f106104e05761010080835404028352916020019161050b565b820191906000526020600020905b8154815290600101906020018083116104ee57829003601f168201915b505094505050505060206040518083038186803b15801561052b57600080fd5b505af415801561053f573d6000803e3d6000fd5b505050506040513d602081101561055557600080fd5b810190808051906020019092919050505015610575576001915050610588565b808060010191505061034e565b50600090505b90565b828054600181600116156101000203166002900490600052602060002090601f016020900481019282601f106105cc57805160ff19168380011785556105fa565b828001600101855582156105fa579182015b828111156105f95782518255916020019190600101906105de565b5b509050610607919061060b565b5090565b61062d91905b80821115610629576000816000905550600101610611565b5090565b9056fe546869732066756e6374696f6e206973207265737472696374656420746f2074686520636f6e74726163742773206f776e6572a265627a7a72315820f5d2a941ea35a2ff209406ab2117fbafaa59444021fcddd012cdc8843d59fa7d64736f6c63430005100032",
  "source": "pragma solidity >=0.4.0 <=0.8.0;\r\nimport './outside/utils.sol';\r\ncontract UsersContract {\r\n\r\n  address owner = msg.sender;\r\n  string[] usersList;\r\n  uint nbUser;\r\n  bool connected;\r\n  mapping(address => string) usersMap;\r\n  constructor() public {\r\n    nbUser = 0;\r\n    connected = false;\r\n  }\r\n\r\n  modifier restricted() {\r\n    require(\r\n      msg.sender == owner,\r\n      \"This function is restricted to the contract's owner\"\r\n    );\r\n    _;\r\n  }\r\n\r\n  // function setCompleted(uint completed) public restricted {\r\n  //   last_completed_migration = completed;\r\n  // }\r\n\r\n  //authentification\r\n  function usercheck() public view restricted returns(bool) {\r\n    //verifier si user have name\r\n    for (uint i = 0; i < usersList.length; i++){\r\n      if( Utils.equals(usersMap[owner],usersList[i]) ) { //keccak256(abi.encodePacked()) == keccak256(abi.encodePacked())\r\n        return true;\r\n      }\r\n    }\r\n    return false;\r\n  }\r\n\r\n  function addUsername(string memory name) public restricted {\r\n    usersMap[owner] = name;\r\n    usersList.push(name);\r\n    nbUser++;\r\n    connected = true;\r\n  }\r\n}\r\n",
  "sourcePath": "C:\\Users\\uriel\\5al1\\blockchain\\blockchain-marketplace\\blockchain-contract\\contracts\\UsersContract.sol",
  "compiler": {
    "name": "solc",
    "version": "0.5.16+commit.9c3226ce.Emscripten.clang"
  },
  "schemaVersion": "3.3.2",
  "updatedAt": "2021-01-06T13:04:09.140Z",
  "networkType": "ethereum",
  "devdoc": {
    "methods": {}
  },
  "userdoc": {
    "methods": {}
  }
}