{
  "contractName": "UsersContract",
  "abi": [
    {
      "constant": true,
      "inputs": [],
      "name": "usercheck",
      "outputs": [
        {
          "internalType": "uint256",
          "name": "",
          "type": "uint256"
        }
      ],
      "payable": false,
      "stateMutability": "view",
      "type": "function"
    },
    {
      "constant": true,
      "inputs": [],
      "name": "getMyName",
      "outputs": [
        {
          "internalType": "string",
          "name": "",
          "type": "string"
        }
      ],
      "payable": false,
      "stateMutability": "view",
      "type": "function"
    },
    {
      "constant": false,
      "inputs": [
        {
          "internalType": "string",
          "name": "name",
          "type": "string"
        }
      ],
      "name": "addUsername",
      "outputs": [
        {
          "internalType": "uint256",
          "name": "",
          "type": "uint256"
        }
      ],
      "payable": false,
      "stateMutability": "nonpayable",
      "type": "function"
    }
  ],
  "bytecode": "0x608060405234801561001057600080fd5b50610688806100206000396000f3fe608060405234801561001057600080fd5b50600436106100415760003560e01c8063755c1fd81461004657806375a54bc214610115578063d468632d14610198575b600080fd5b6100ff6004803603602081101561005c57600080fd5b810190808035906020019064010000000081111561007957600080fd5b82018360208201111561008b57600080fd5b803590602001918460018302840111640100000000831117156100ad57600080fd5b91908080601f016020809104026020016040519081016040528093929190818152602001838380828437600081840152601f19601f8201169050808301925050505050505091929192905050506101b6565b6040518082815260200191505060405180910390f35b61011d6102c2565b6040518080602001828103825283818151815260200191508051906020019080838360005b8381101561015d578082015181840152602081019050610142565b50505050905090810190601f16801561018a5780820380516001836020036101000a031916815260200191505b509250505060405180910390f35b6101a06103ba565b6040518082815260200191505060405180910390f35b600081600360003373ffffffffffffffffffffffffffffffffffffffff1673ffffffffffffffffffffffffffffffffffffffff168152602001908152602001600020908051906020019061020b9291906105ae565b5060006102178361052b565b9050600260003373ffffffffffffffffffffffffffffffffffffffff1673ffffffffffffffffffffffffffffffffffffffff168152602001908152602001600020600081548092919060010191905055503360008083815260200190815260200160002060006101000a81548173ffffffffffffffffffffffffffffffffffffffff021916908373ffffffffffffffffffffffffffffffffffffffff16021790555080915050919050565b60606000600260003373ffffffffffffffffffffffffffffffffffffffff1673ffffffffffffffffffffffffffffffffffffffff168152602001908152602001600020549050600160008281526020019081526020016000208054600181600116156101000203166002900480601f0160208091040260200160405190810160405280929190818152602001828054600181600116156101000203166002900480156103af5780601f10610384576101008083540402835291602001916103af565b820191906000526020600020905b81548152906001019060200180831161039257829003601f168201915b505050505091505090565b6000600260003373ffffffffffffffffffffffffffffffffffffffff1673ffffffffffffffffffffffffffffffffffffffff168152602001908152602001600020546104dc600360003373ffffffffffffffffffffffffffffffffffffffff1673ffffffffffffffffffffffffffffffffffffffff1681526020019081526020016000208054600181600116156101000203166002900480601f0160208091040260200160405190810160405280929190818152602001828054600181600116156101000203166002900480156104d25780601f106104a7576101008083540402835291602001916104d2565b820191906000526020600020905b8154815290600101906020018083116104b557829003601f168201915b505050505061052b565b146104e657600080fd5b600260003373ffffffffffffffffffffffffffffffffffffffff1673ffffffffffffffffffffffffffffffffffffffff16815260200190815260200160002054905090565b600080826040516020018082805190602001908083835b602083106105655780518252602082019150602081019050602083039250610542565b6001836020036101000a0380198251168184511680821785525050505050509050019150506040516020818303038152906040528051906020012060001c905080915050919050565b828054600181600116156101000203166002900490600052602060002090601f016020900481019282601f106105ef57805160ff191683800117855561061d565b8280016001018555821561061d579182015b8281111561061c578251825591602001919060010190610601565b5b50905061062a919061062e565b5090565b61065091905b8082111561064c576000816000905550600101610634565b5090565b9056fea265627a7a72315820594767fcfbd71704f78935fea91a4f1ec710bfbc2e49fcaced620faf3652111d64736f6c63430005100032",
  "source": "pragma solidity >=0.4.0 <=0.8.0;\r\nimport './outside/utils.sol';\r\ncontract UsersContract {\r\n\r\n\r\n  mapping(uint => address) userAdress;\r\n  mapping(uint => string) idName;\r\n  mapping(address => uint) usersCount;\r\n  mapping(address => string) usersMap;\r\n\r\n  modifier onlyOwnerOf(uint _id) {\r\n    require(msg.sender == userAdress[_id]);\r\n    _;\r\n  }\r\n\r\n  //authentification\r\n  function usercheck() public view returns(uint) {\r\n    // verifier si user have name\r\n    require( _generateNameId(usersMap[msg.sender]) == usersCount[msg.sender]);\r\n    return usersCount[msg.sender];\r\n  }\r\n\r\n  function getMyName() public view returns(string memory) {\r\n    uint id = usersCount[msg.sender];\r\n    return idName[id];\r\n  }\r\n\r\n  function addUsername(string memory name) public returns(uint) {\r\n    usersMap[msg.sender] = name;\r\n    uint new_id = _generateNameId(name);\r\n    usersCount[msg.sender]++;\r\n    userAdress[new_id] = msg.sender;\r\n    return new_id;\r\n  }\r\n  function _generateNameId(string memory _str) private pure returns (uint) {\r\n      uint rand = uint(keccak256(abi.encodePacked(_str)));\r\n      return rand;\r\n  }\r\n}\r\n",
  "sourcePath": "C:\\Users\\uriel\\5al1\\blockchain\\blockchain-marketplace\\blockchain-contract\\contracts\\UsersContract.sol",
  "compiler": {
    "name": "solc",
    "version": "0.5.16+commit.9c3226ce.Emscripten.clang"
  },
  "schemaVersion": "3.3.2",
  "updatedAt": "2021-01-25T15:00:07.829Z",
  "devdoc": {
    "methods": {}
  },
  "userdoc": {
    "methods": {}
  }
}